{
  "_format": "hh-sol-artifact-1",
  "contractName": "Raffle",
  "sourceName": "contracts/Raffle.sol",
  "abi": [
    {
      "inputs": [
        {
          "internalType": "address",
          "name": "vrfCoordinatorV2_5",
          "type": "address"
        },
        {
          "internalType": "uint256",
          "name": "entranceFee",
          "type": "uint256"
        },
        {
          "internalType": "bytes32",
          "name": "keyHash",
          "type": "bytes32"
        },
        {
          "internalType": "uint64",
          "name": "subscriptionId",
          "type": "uint64"
        },
        {
          "internalType": "uint32",
          "name": "callBackGasLimit",
          "type": "uint32"
        },
        {
          "internalType": "uint256",
          "name": "interval",
          "type": "uint256"
        }
      ],
      "stateMutability": "nonpayable",
      "type": "constructor"
    },
    {
      "inputs": [
        {
          "internalType": "address",
          "name": "have",
          "type": "address"
        },
        {
          "internalType": "address",
          "name": "want",
          "type": "address"
        }
      ],
      "name": "OnlyCoordinatorCanFulfill",
      "type": "error"
    },
    {
      "inputs": [
        {
          "internalType": "address",
          "name": "have",
          "type": "address"
        },
        {
          "internalType": "address",
          "name": "owner",
          "type": "address"
        },
        {
          "internalType": "address",
          "name": "coordinator",
          "type": "address"
        }
      ],
      "name": "OnlyOwnerOrCoordinator",
      "type": "error"
    },
    {
      "inputs": [],
      "name": "Raffle__NotEnoughEth",
      "type": "error"
    },
    {
      "inputs": [],
      "name": "Raffle__NotOpen",
      "type": "error"
    },
    {
      "inputs": [],
      "name": "Raffle__TransferToLastWinnerFailed",
      "type": "error"
    },
    {
      "inputs": [
        {
          "internalType": "uint256",
          "name": "currentBalance",
          "type": "uint256"
        },
        {
          "internalType": "uint256",
          "name": "numPlayers",
          "type": "uint256"
        },
        {
          "internalType": "uint256",
          "name": "raffleState",
          "type": "uint256"
        }
      ],
      "name": "Raffle__UpKeepNotNeeded",
      "type": "error"
    },
    {
      "inputs": [],
      "name": "ZeroAddress",
      "type": "error"
    },
    {
      "anonymous": false,
      "inputs": [
        {
          "indexed": false,
          "internalType": "address",
          "name": "vrfCoordinator",
          "type": "address"
        }
      ],
      "name": "CoordinatorSet",
      "type": "event"
    },
    {
      "anonymous": false,
      "inputs": [
        {
          "indexed": true,
          "internalType": "address",
          "name": "from",
          "type": "address"
        },
        {
          "indexed": true,
          "internalType": "address",
          "name": "to",
          "type": "address"
        }
      ],
      "name": "OwnershipTransferRequested",
      "type": "event"
    },
    {
      "anonymous": false,
      "inputs": [
        {
          "indexed": true,
          "internalType": "address",
          "name": "from",
          "type": "address"
        },
        {
          "indexed": true,
          "internalType": "address",
          "name": "to",
          "type": "address"
        }
      ],
      "name": "OwnershipTransferred",
      "type": "event"
    },
    {
      "anonymous": false,
      "inputs": [
        {
          "indexed": true,
          "internalType": "address",
          "name": "player",
          "type": "address"
        }
      ],
      "name": "RaffleEnter",
      "type": "event"
    },
    {
      "anonymous": false,
      "inputs": [
        {
          "indexed": true,
          "internalType": "uint256",
          "name": "requestId",
          "type": "uint256"
        }
      ],
      "name": "RequestedRaffleWinner",
      "type": "event"
    },
    {
      "anonymous": false,
      "inputs": [
        {
          "indexed": true,
          "internalType": "address",
          "name": "winner",
          "type": "address"
        }
      ],
      "name": "WinnerPicked",
      "type": "event"
    },
    {
      "inputs": [],
      "name": "acceptOwnership",
      "outputs": [],
      "stateMutability": "nonpayable",
      "type": "function"
    },
    {
      "inputs": [
        {
          "internalType": "bytes",
          "name": "",
          "type": "bytes"
        }
      ],
      "name": "checkUpkeep",
      "outputs": [
        {
          "internalType": "bool",
          "name": "upkeepNeeded",
          "type": "bool"
        },
        {
          "internalType": "bytes",
          "name": "",
          "type": "bytes"
        }
      ],
      "stateMutability": "nonpayable",
      "type": "function"
    },
    {
      "inputs": [],
      "name": "enterRaffle",
      "outputs": [],
      "stateMutability": "payable",
      "type": "function"
    },
    {
      "inputs": [],
      "name": "getEntranceFee",
      "outputs": [
        {
          "internalType": "uint256",
          "name": "",
          "type": "uint256"
        }
      ],
      "stateMutability": "view",
      "type": "function"
    },
    {
      "inputs": [],
      "name": "getLastWinner",
      "outputs": [
        {
          "internalType": "address",
          "name": "",
          "type": "address"
        }
      ],
      "stateMutability": "view",
      "type": "function"
    },
    {
      "inputs": [],
      "name": "getLatestTimestamp",
      "outputs": [
        {
          "internalType": "uint256",
          "name": "",
          "type": "uint256"
        }
      ],
      "stateMutability": "view",
      "type": "function"
    },
    {
      "inputs": [],
      "name": "getNumWords",
      "outputs": [
        {
          "internalType": "uint32",
          "name": "",
          "type": "uint32"
        }
      ],
      "stateMutability": "pure",
      "type": "function"
    },
    {
      "inputs": [],
      "name": "getNumberOfPlayers",
      "outputs": [
        {
          "internalType": "uint256",
          "name": "",
          "type": "uint256"
        }
      ],
      "stateMutability": "view",
      "type": "function"
    },
    {
      "inputs": [
        {
          "internalType": "uint256",
          "name": "index",
          "type": "uint256"
        }
      ],
      "name": "getPlayer",
      "outputs": [
        {
          "internalType": "address",
          "name": "",
          "type": "address"
        }
      ],
      "stateMutability": "view",
      "type": "function"
    },
    {
      "inputs": [],
      "name": "getRaffleState",
      "outputs": [
        {
          "internalType": "enum Raffle.RaffleState",
          "name": "",
          "type": "uint8"
        }
      ],
      "stateMutability": "view",
      "type": "function"
    },
    {
      "inputs": [],
      "name": "getRequestConfirmations",
      "outputs": [
        {
          "internalType": "uint16",
          "name": "",
          "type": "uint16"
        }
      ],
      "stateMutability": "pure",
      "type": "function"
    },
    {
      "inputs": [],
      "name": "owner",
      "outputs": [
        {
          "internalType": "address",
          "name": "",
          "type": "address"
        }
      ],
      "stateMutability": "view",
      "type": "function"
    },
    {
      "inputs": [
        {
          "internalType": "bytes",
          "name": "",
          "type": "bytes"
        }
      ],
      "name": "performUpkeep",
      "outputs": [],
      "stateMutability": "nonpayable",
      "type": "function"
    },
    {
      "inputs": [
        {
          "internalType": "uint256",
          "name": "requestId",
          "type": "uint256"
        },
        {
          "internalType": "uint256[]",
          "name": "randomWords",
          "type": "uint256[]"
        }
      ],
      "name": "rawFulfillRandomWords",
      "outputs": [],
      "stateMutability": "nonpayable",
      "type": "function"
    },
    {
      "inputs": [
        {
          "internalType": "uint256",
          "name": "",
          "type": "uint256"
        }
      ],
      "name": "s_randomWords",
      "outputs": [
        {
          "internalType": "uint256",
          "name": "",
          "type": "uint256"
        }
      ],
      "stateMutability": "view",
      "type": "function"
    },
    {
      "inputs": [],
      "name": "s_requestId",
      "outputs": [
        {
          "internalType": "uint256",
          "name": "",
          "type": "uint256"
        }
      ],
      "stateMutability": "view",
      "type": "function"
    },
    {
      "inputs": [],
      "name": "s_vrfCoordinator",
      "outputs": [
        {
          "internalType": "contract IVRFCoordinatorV2Plus",
          "name": "",
          "type": "address"
        }
      ],
      "stateMutability": "view",
      "type": "function"
    },
    {
      "inputs": [
        {
          "internalType": "address",
          "name": "_vrfCoordinator",
          "type": "address"
        }
      ],
      "name": "setCoordinator",
      "outputs": [],
      "stateMutability": "nonpayable",
      "type": "function"
    },
    {
      "inputs": [
        {
          "internalType": "address",
          "name": "to",
          "type": "address"
        }
      ],
      "name": "transferOwnership",
      "outputs": [],
      "stateMutability": "nonpayable",
      "type": "function"
    }
  ],
  "bytecode": "0x6101006040523480156200001257600080fd5b506040516200254e3803806200254e8339818101604052810190620000389190620004fe565b85338060008073ffffffffffffffffffffffffffffffffffffffff168273ffffffffffffffffffffffffffffffffffffffff1603620000ae576040517f08c379a0000000000000000000000000000000000000000000000000000000008152600401620000a590620005fb565b60405180910390fd5b816000806101000a81548173ffffffffffffffffffffffffffffffffffffffff021916908373ffffffffffffffffffffffffffffffffffffffff160217905550600073ffffffffffffffffffffffffffffffffffffffff168173ffffffffffffffffffffffffffffffffffffffff1614620001355762000134816200026960201b60201c565b5b505050600073ffffffffffffffffffffffffffffffffffffffff168173ffffffffffffffffffffffffffffffffffffffff16036200019f576040517fd92e233d00000000000000000000000000000000000000000000000000000000815260040160405180910390fd5b80600260006101000a81548173ffffffffffffffffffffffffffffffffffffffff021916908373ffffffffffffffffffffffffffffffffffffffff160217905550508360e081815250508267ffffffffffffffff1660c08167ffffffffffffffff16815250508460a081815250508163ffffffff1660808163ffffffff16815250506000600660146101000a81548160ff021916908360018111156200024a57620002496200061d565b5b02179055504260078190555080600881905550505050505050620006be565b3373ffffffffffffffffffffffffffffffffffffffff168173ffffffffffffffffffffffffffffffffffffffff1603620002da576040517f08c379a0000000000000000000000000000000000000000000000000000000008152600401620002d1906200069c565b60405180910390fd5b80600160006101000a81548173ffffffffffffffffffffffffffffffffffffffff021916908373ffffffffffffffffffffffffffffffffffffffff1602179055508073ffffffffffffffffffffffffffffffffffffffff1660008054906101000a900473ffffffffffffffffffffffffffffffffffffffff1673ffffffffffffffffffffffffffffffffffffffff167fed8889f560326eb138920d842192f0eb3dd22b4f139c87a2c57538e05bae127860405160405180910390a350565b600080fd5b600073ffffffffffffffffffffffffffffffffffffffff82169050919050565b6000620003ca826200039d565b9050919050565b620003dc81620003bd565b8114620003e857600080fd5b50565b600081519050620003fc81620003d1565b92915050565b6000819050919050565b620004178162000402565b81146200042357600080fd5b50565b60008151905062000437816200040c565b92915050565b6000819050919050565b62000452816200043d565b81146200045e57600080fd5b50565b600081519050620004728162000447565b92915050565b600067ffffffffffffffff82169050919050565b620004978162000478565b8114620004a357600080fd5b50565b600081519050620004b7816200048c565b92915050565b600063ffffffff82169050919050565b620004d881620004bd565b8114620004e457600080fd5b50565b600081519050620004f881620004cd565b92915050565b60008060008060008060c087890312156200051e576200051d62000398565b5b60006200052e89828a01620003eb565b96505060206200054189828a0162000426565b95505060406200055489828a0162000461565b94505060606200056789828a01620004a6565b93505060806200057a89828a01620004e7565b92505060a06200058d89828a0162000426565b9150509295509295509295565b600082825260208201905092915050565b7f43616e6e6f7420736574206f776e657220746f207a65726f0000000000000000600082015250565b6000620005e36018836200059a565b9150620005f082620005ab565b602082019050919050565b600060208201905081810360008301526200061681620005d4565b9050919050565b7f4e487b7100000000000000000000000000000000000000000000000000000000600052602160045260246000fd5b7f43616e6e6f74207472616e7366657220746f2073656c66000000000000000000600082015250565b6000620006846017836200059a565b915062000691826200064c565b602082019050919050565b60006020820190508181036000830152620006b78162000675565b9050919050565b60805160a05160c05160e051611e4f620006ff60003960006107b7015260006107dd015260008181610448015261054b015260006108180152611e4f6000f3fe6080604052600436106101145760003560e01c80638da5cb5b116100a0578063f2fde38b11610064578063f2fde38b1461035d578063f43b52cb14610386578063f6eaffc8146103b1578063f88649a1146103ee578063fd6673f51461041957610114565b80638da5cb5b146102765780638ea98117146102a15780639eccacf6146102ca578063e55ae4e8146102f5578063e89e106a1461033257610114565b80634585e33b116100e75780634585e33b146101a257806353a2c19a146101cb5780635f1b0fd8146101f65780636e04ff0d1461022157806379ba50971461025f57610114565b806309bc33a714610119578063115cbaf5146101445780631fe543e31461016f5780632cfcc53914610198575b600080fd5b34801561012557600080fd5b5061012e610444565b60405161013b919061135e565b60405180910390f35b34801561015057600080fd5b5061015961046c565b60405161016691906113f0565b60405180910390f35b34801561017b57600080fd5b50610196600480360381019061019191906114b0565b610483565b005b6101a0610549565b005b3480156101ae57600080fd5b506101c960048036038101906101c49190611651565b6106b8565b005b3480156101d757600080fd5b506101e06108d5565b6040516101ed91906116b9565b60405180910390f35b34801561020257600080fd5b5061020b6108de565b60405161021891906116f1565b60405180910390f35b34801561022d57600080fd5b5061024860048036038101906102439190611651565b6108e7565b6040516102569291906117a6565b60405180910390f35b34801561026b57600080fd5b5061027461098b565b005b34801561028257600080fd5b5061028b610b20565b6040516102989190611817565b60405180910390f35b3480156102ad57600080fd5b506102c860048036038101906102c3919061185e565b610b49565b005b3480156102d657600080fd5b506102df610d2a565b6040516102ec91906118ea565b60405180910390f35b34801561030157600080fd5b5061031c60048036038101906103179190611905565b610d50565b6040516103299190611817565b60405180910390f35b34801561033e57600080fd5b50610347610d98565b604051610354919061135e565b60405180910390f35b34801561036957600080fd5b50610384600480360381019061037f919061185e565b610d9e565b005b34801561039257600080fd5b5061039b610db2565b6040516103a8919061135e565b60405180910390f35b3480156103bd57600080fd5b506103d860048036038101906103d39190611905565b610dbc565b6040516103e5919061135e565b60405180910390f35b3480156103fa57600080fd5b50610403610de0565b6040516104109190611817565b60405180910390f35b34801561042557600080fd5b5061042e610e0a565b60405161043b919061135e565b60405180910390f35b60007f0000000000000000000000000000000000000000000000000000000000000000905090565b6000600660149054906101000a900460ff16905090565b600260009054906101000a900473ffffffffffffffffffffffffffffffffffffffff1673ffffffffffffffffffffffffffffffffffffffff163373ffffffffffffffffffffffffffffffffffffffff16146105395733600260009054906101000a900473ffffffffffffffffffffffffffffffffffffffff166040517f1cf993f4000000000000000000000000000000000000000000000000000000008152600401610530929190611932565b60405180910390fd5b610544838383610e17565b505050565b7f00000000000000000000000000000000000000000000000000000000000000003410156105a3576040517fa10e43c700000000000000000000000000000000000000000000000000000000815260040160405180910390fd5b600060018111156105b7576105b6611379565b5b600660149054906101000a900460ff1660018111156105d9576105d8611379565b5b14610610576040517f1425571c00000000000000000000000000000000000000000000000000000000815260040160405180910390fd5b6003339080600181540180825580915050600190039060005260206000200160009091909190916101000a81548173ffffffffffffffffffffffffffffffffffffffff021916908373ffffffffffffffffffffffffffffffffffffffff1602179055503373ffffffffffffffffffffffffffffffffffffffff167f0805e1d667bddb8a95f0f09880cf94f403fb596ce79928d9f29b74203ba284d460405160405180910390a2565b60006106d2604051806020016040528060008152506108e7565b509050806107415747600380549050600660149054906101000a900460ff16600181111561070357610702611379565b5b6040517f3a8d60860000000000000000000000000000000000000000000000000000000081526004016107389392919061195b565b60405180910390fd5b6001600660146101000a81548160ff0219169083600181111561076757610766611379565b5b0217905550600260009054906101000a900473ffffffffffffffffffffffffffffffffffffffff1673ffffffffffffffffffffffffffffffffffffffff16639b1c385e6040518060c001604052807f000000000000000000000000000000000000000000000000000000000000000081526020017f000000000000000000000000000000000000000000000000000000000000000067ffffffffffffffff168152602001600361ffff1681526020017f000000000000000000000000000000000000000000000000000000000000000063ffffffff168152602001600163ffffffff16815260200161086960405180602001604052806001151581525061104a565b8152506040518263ffffffff1660e01b81526004016108889190611aab565b6020604051808303816000875af11580156108a7573d6000803e3d6000fd5b505050506040513d601f19601f820116820180604052508101906108cb9190611ae2565b6005819055505050565b60006001905090565b60006003905090565b600060606000600660149054906101000a900460ff16600181111561090f5761090e611379565b5b6000600181111561092357610922611379565b5b1490506000600854600754426109399190611b3e565b119050600080600380549050119050600080471190508380156109595750825b80156109625750815b801561096b5750805b955085604051806020016040528060008152509550955050505050915091565b600160009054906101000a900473ffffffffffffffffffffffffffffffffffffffff1673ffffffffffffffffffffffffffffffffffffffff163373ffffffffffffffffffffffffffffffffffffffff1614610a1b576040517f08c379a0000000000000000000000000000000000000000000000000000000008152600401610a1290611bcf565b60405180910390fd5b60008060009054906101000a900473ffffffffffffffffffffffffffffffffffffffff169050336000806101000a81548173ffffffffffffffffffffffffffffffffffffffff021916908373ffffffffffffffffffffffffffffffffffffffff1602179055506000600160006101000a81548173ffffffffffffffffffffffffffffffffffffffff021916908373ffffffffffffffffffffffffffffffffffffffff1602179055503373ffffffffffffffffffffffffffffffffffffffff168173ffffffffffffffffffffffffffffffffffffffff167f8be0079c531659141344cd1fd0a4f28419497f9722a3daafe3b4186f6b6457e060405160405180910390a350565b60008060009054906101000a900473ffffffffffffffffffffffffffffffffffffffff16905090565b610b51610b20565b73ffffffffffffffffffffffffffffffffffffffff163373ffffffffffffffffffffffffffffffffffffffff1614158015610bda5750600260009054906101000a900473ffffffffffffffffffffffffffffffffffffffff1673ffffffffffffffffffffffffffffffffffffffff163373ffffffffffffffffffffffffffffffffffffffff1614155b15610c495733610be8610b20565b600260009054906101000a900473ffffffffffffffffffffffffffffffffffffffff166040517f061db9c1000000000000000000000000000000000000000000000000000000008152600401610c4093929190611bef565b60405180910390fd5b600073ffffffffffffffffffffffffffffffffffffffff168173ffffffffffffffffffffffffffffffffffffffff1603610caf576040517fd92e233d00000000000000000000000000000000000000000000000000000000815260040160405180910390fd5b80600260006101000a81548173ffffffffffffffffffffffffffffffffffffffff021916908373ffffffffffffffffffffffffffffffffffffffff1602179055507fd1a6a14209a385a964d036e404cb5cfb71f4000cdb03c9366292430787261be681604051610d1f9190611817565b60405180910390a150565b600260009054906101000a900473ffffffffffffffffffffffffffffffffffffffff1681565b600060038281548110610d6657610d65611c26565b5b9060005260206000200160009054906101000a900473ffffffffffffffffffffffffffffffffffffffff169050919050565b60055481565b610da66110e2565b610daf81611172565b50565b6000600754905090565b60048181548110610dcc57600080fd5b906000526020600020016000915090505481565b6000600660009054906101000a900473ffffffffffffffffffffffffffffffffffffffff16905090565b6000600380549050905090565b600060038054905083836000818110610e3357610e32611c26565b5b90506020020135610e449190611c84565b9050600060038281548110610e5c57610e5b611c26565b5b9060005260206000200160009054906101000a900473ffffffffffffffffffffffffffffffffffffffff16905080600660006101000a81548173ffffffffffffffffffffffffffffffffffffffff021916908373ffffffffffffffffffffffffffffffffffffffff1602179055506000600660146101000a81548160ff02191690836001811115610ef057610eef611379565b5b0217905550600067ffffffffffffffff811115610f1057610f0f611526565b5b604051908082528060200260200182016040528015610f3e5781602001602082028036833780820191505090505b5060039080519060200190610f5492919061129e565b504260078190555060008173ffffffffffffffffffffffffffffffffffffffff1647604051610f8290611ce6565b60006040518083038185875af1925050503d8060008114610fbf576040519150601f19603f3d011682016040523d82523d6000602084013e610fc4565b606091505b5050905080610fff576040517fa3cc2cc200000000000000000000000000000000000000000000000000000000815260040160405180910390fd5b8173ffffffffffffffffffffffffffffffffffffffff167f5b690ec4a06fe979403046eaeea5b3ce38524683c3001f662c8b5a829632f7df60405160405180910390a2505050505050565b60607f92fd13387c7fe7befbc38d303d6468778fb9731bc4583f17d92989c6fcfdeaaa8260405160240161107e9190611d26565b604051602081830303815290604052907bffffffffffffffffffffffffffffffffffffffffffffffffffffffff19166020820180517bffffffffffffffffffffffffffffffffffffffffffffffffffffffff83818316178352505050509050919050565b60008054906101000a900473ffffffffffffffffffffffffffffffffffffffff1673ffffffffffffffffffffffffffffffffffffffff163373ffffffffffffffffffffffffffffffffffffffff1614611170576040517f08c379a000000000000000000000000000000000000000000000000000000000815260040161116790611d8d565b60405180910390fd5b565b3373ffffffffffffffffffffffffffffffffffffffff168173ffffffffffffffffffffffffffffffffffffffff16036111e0576040517f08c379a00000000000000000000000000000000000000000000000000000000081526004016111d790611df9565b60405180910390fd5b80600160006101000a81548173ffffffffffffffffffffffffffffffffffffffff021916908373ffffffffffffffffffffffffffffffffffffffff1602179055508073ffffffffffffffffffffffffffffffffffffffff1660008054906101000a900473ffffffffffffffffffffffffffffffffffffffff1673ffffffffffffffffffffffffffffffffffffffff167fed8889f560326eb138920d842192f0eb3dd22b4f139c87a2c57538e05bae127860405160405180910390a350565b828054828255906000526020600020908101928215611317579160200282015b828111156113165782518260006101000a81548173ffffffffffffffffffffffffffffffffffffffff021916908373ffffffffffffffffffffffffffffffffffffffff160217905550916020019190600101906112be565b5b5090506113249190611328565b5090565b5b80821115611341576000816000905550600101611329565b5090565b6000819050919050565b61135881611345565b82525050565b6000602082019050611373600083018461134f565b92915050565b7f4e487b7100000000000000000000000000000000000000000000000000000000600052602160045260246000fd5b600281106113b9576113b8611379565b5b50565b60008190506113ca826113a8565b919050565b60006113da826113bc565b9050919050565b6113ea816113cf565b82525050565b600060208201905061140560008301846113e1565b92915050565b6000604051905090565b600080fd5b600080fd5b61142881611345565b811461143357600080fd5b50565b6000813590506114458161141f565b92915050565b600080fd5b600080fd5b600080fd5b60008083601f8401126114705761146f61144b565b5b8235905067ffffffffffffffff81111561148d5761148c611450565b5b6020830191508360208202830111156114a9576114a8611455565b5b9250929050565b6000806000604084860312156114c9576114c8611415565b5b60006114d786828701611436565b935050602084013567ffffffffffffffff8111156114f8576114f761141a565b5b6115048682870161145a565b92509250509250925092565b600080fd5b6000601f19601f8301169050919050565b7f4e487b7100000000000000000000000000000000000000000000000000000000600052604160045260246000fd5b61155e82611515565b810181811067ffffffffffffffff8211171561157d5761157c611526565b5b80604052505050565b600061159061140b565b905061159c8282611555565b919050565b600067ffffffffffffffff8211156115bc576115bb611526565b5b6115c582611515565b9050602081019050919050565b82818337600083830152505050565b60006115f46115ef846115a1565b611586565b9050828152602081018484840111156116105761160f611510565b5b61161b8482856115d2565b509392505050565b600082601f8301126116385761163761144b565b5b81356116488482602086016115e1565b91505092915050565b60006020828403121561166757611666611415565b5b600082013567ffffffffffffffff8111156116855761168461141a565b5b61169184828501611623565b91505092915050565b600063ffffffff82169050919050565b6116b38161169a565b82525050565b60006020820190506116ce60008301846116aa565b92915050565b600061ffff82169050919050565b6116eb816116d4565b82525050565b600060208201905061170660008301846116e2565b92915050565b60008115159050919050565b6117218161170c565b82525050565b600081519050919050565b600082825260208201905092915050565b60005b83811015611761578082015181840152602081019050611746565b60008484015250505050565b600061177882611727565b6117828185611732565b9350611792818560208601611743565b61179b81611515565b840191505092915050565b60006040820190506117bb6000830185611718565b81810360208301526117cd818461176d565b90509392505050565b600073ffffffffffffffffffffffffffffffffffffffff82169050919050565b6000611801826117d6565b9050919050565b611811816117f6565b82525050565b600060208201905061182c6000830184611808565b92915050565b61183b816117f6565b811461184657600080fd5b50565b60008135905061185881611832565b92915050565b60006020828403121561187457611873611415565b5b600061188284828501611849565b91505092915050565b6000819050919050565b60006118b06118ab6118a6846117d6565b61188b565b6117d6565b9050919050565b60006118c282611895565b9050919050565b60006118d4826118b7565b9050919050565b6118e4816118c9565b82525050565b60006020820190506118ff60008301846118db565b92915050565b60006020828403121561191b5761191a611415565b5b600061192984828501611436565b91505092915050565b60006040820190506119476000830185611808565b6119546020830184611808565b9392505050565b6000606082019050611970600083018661134f565b61197d602083018561134f565b61198a604083018461134f565b949350505050565b6000819050919050565b6119a581611992565b82525050565b6119b481611345565b82525050565b6119c3816116d4565b82525050565b6119d28161169a565b82525050565b600082825260208201905092915050565b60006119f482611727565b6119fe81856119d8565b9350611a0e818560208601611743565b611a1781611515565b840191505092915050565b600060c083016000830151611a3a600086018261199c565b506020830151611a4d60208601826119ab565b506040830151611a6060408601826119ba565b506060830151611a7360608601826119c9565b506080830151611a8660808601826119c9565b5060a083015184820360a0860152611a9e82826119e9565b9150508091505092915050565b60006020820190508181036000830152611ac58184611a22565b905092915050565b600081519050611adc8161141f565b92915050565b600060208284031215611af857611af7611415565b5b6000611b0684828501611acd565b91505092915050565b7f4e487b7100000000000000000000000000000000000000000000000000000000600052601160045260246000fd5b6000611b4982611345565b9150611b5483611345565b9250828203905081811115611b6c57611b6b611b0f565b5b92915050565b600082825260208201905092915050565b7f4d7573742062652070726f706f736564206f776e657200000000000000000000600082015250565b6000611bb9601683611b72565b9150611bc482611b83565b602082019050919050565b60006020820190508181036000830152611be881611bac565b9050919050565b6000606082019050611c046000830186611808565b611c116020830185611808565b611c1e6040830184611808565b949350505050565b7f4e487b7100000000000000000000000000000000000000000000000000000000600052603260045260246000fd5b7f4e487b7100000000000000000000000000000000000000000000000000000000600052601260045260246000fd5b6000611c8f82611345565b9150611c9a83611345565b925082611caa57611ca9611c55565b5b828206905092915050565b600081905092915050565b50565b6000611cd0600083611cb5565b9150611cdb82611cc0565b600082019050919050565b6000611cf182611cc3565b9150819050919050565b611d048161170c565b82525050565b602082016000820151611d206000850182611cfb565b50505050565b6000602082019050611d3b6000830184611d0a565b92915050565b7f4f6e6c792063616c6c61626c65206279206f776e657200000000000000000000600082015250565b6000611d77601683611b72565b9150611d8282611d41565b602082019050919050565b60006020820190508181036000830152611da681611d6a565b9050919050565b7f43616e6e6f74207472616e7366657220746f2073656c66000000000000000000600082015250565b6000611de3601783611b72565b9150611dee82611dad565b602082019050919050565b60006020820190508181036000830152611e1281611dd6565b905091905056fea264697066735822122066571d33f333cd2080a3894058dbb750e271d3431eae012e3e30a48028b6138f64736f6c63430008130033",
  "linkReferences": {},
  "deployedLinkReferences": {}
}