{
  "_format": "hh-sol-artifact-1",
  "contractName": "Raffle",
  "sourceName": "contracts/Raffle.sol",
  "abi": [
    {
      "inputs": [
        {
          "internalType": "address",
          "name": "vrfCoordinatorV2",
          "type": "address"
        },
        {
          "internalType": "uint256",
          "name": "subscriptionId",
          "type": "uint256"
        },
        {
          "internalType": "bytes32",
          "name": "gasLane",
          "type": "bytes32"
        },
        {
          "internalType": "uint256",
          "name": "interval",
          "type": "uint256"
        },
        {
          "internalType": "uint256",
          "name": "entranceFee",
          "type": "uint256"
        },
        {
          "internalType": "uint32",
          "name": "callBackGasLimit",
          "type": "uint32"
        }
      ],
      "stateMutability": "nonpayable",
      "type": "constructor"
    },
    {
      "inputs": [
        {
          "internalType": "address",
          "name": "have",
          "type": "address"
        },
        {
          "internalType": "address",
          "name": "want",
          "type": "address"
        }
      ],
      "name": "OnlyCoordinatorCanFulfill",
      "type": "error"
    },
    {
      "inputs": [
        {
          "internalType": "address",
          "name": "have",
          "type": "address"
        },
        {
          "internalType": "address",
          "name": "owner",
          "type": "address"
        },
        {
          "internalType": "address",
          "name": "coordinator",
          "type": "address"
        }
      ],
      "name": "OnlyOwnerOrCoordinator",
      "type": "error"
    },
    {
      "inputs": [],
      "name": "Raffle__NotOpen",
      "type": "error"
    },
    {
      "inputs": [],
      "name": "Raffle__SendMoreToEnterRaffle",
      "type": "error"
    },
    {
      "inputs": [],
      "name": "Raffle__TransferToLastWinnerFailed",
      "type": "error"
    },
    {
      "inputs": [
        {
          "internalType": "uint256",
          "name": "currentBalance",
          "type": "uint256"
        },
        {
          "internalType": "uint256",
          "name": "numPlayers",
          "type": "uint256"
        },
        {
          "internalType": "uint256",
          "name": "raffleState",
          "type": "uint256"
        }
      ],
      "name": "Raffle__UpKeepNotNeeded",
      "type": "error"
    },
    {
      "inputs": [],
      "name": "ZeroAddress",
      "type": "error"
    },
    {
      "anonymous": false,
      "inputs": [
        {
          "indexed": false,
          "internalType": "address",
          "name": "vrfCoordinator",
          "type": "address"
        }
      ],
      "name": "CoordinatorSet",
      "type": "event"
    },
    {
      "anonymous": false,
      "inputs": [
        {
          "indexed": true,
          "internalType": "address",
          "name": "from",
          "type": "address"
        },
        {
          "indexed": true,
          "internalType": "address",
          "name": "to",
          "type": "address"
        }
      ],
      "name": "OwnershipTransferRequested",
      "type": "event"
    },
    {
      "anonymous": false,
      "inputs": [
        {
          "indexed": true,
          "internalType": "address",
          "name": "from",
          "type": "address"
        },
        {
          "indexed": true,
          "internalType": "address",
          "name": "to",
          "type": "address"
        }
      ],
      "name": "OwnershipTransferred",
      "type": "event"
    },
    {
      "anonymous": false,
      "inputs": [
        {
          "indexed": true,
          "internalType": "address",
          "name": "player",
          "type": "address"
        }
      ],
      "name": "RaffleEnter",
      "type": "event"
    },
    {
      "anonymous": false,
      "inputs": [
        {
          "indexed": true,
          "internalType": "uint256",
          "name": "requestId",
          "type": "uint256"
        }
      ],
      "name": "RequestedRaffleWinner",
      "type": "event"
    },
    {
      "anonymous": false,
      "inputs": [
        {
          "indexed": true,
          "internalType": "address",
          "name": "player",
          "type": "address"
        }
      ],
      "name": "WinnerPicked",
      "type": "event"
    },
    {
      "inputs": [],
      "name": "acceptOwnership",
      "outputs": [],
      "stateMutability": "nonpayable",
      "type": "function"
    },
    {
      "inputs": [
        {
          "internalType": "bytes",
          "name": "",
          "type": "bytes"
        }
      ],
      "name": "checkUpkeep",
      "outputs": [
        {
          "internalType": "bool",
          "name": "upkeepNeeded",
          "type": "bool"
        },
        {
          "internalType": "bytes",
          "name": "",
          "type": "bytes"
        }
      ],
      "stateMutability": "view",
      "type": "function"
    },
    {
      "inputs": [],
      "name": "enterRaffle",
      "outputs": [],
      "stateMutability": "payable",
      "type": "function"
    },
    {
      "inputs": [],
      "name": "getEntranceFee",
      "outputs": [
        {
          "internalType": "uint256",
          "name": "",
          "type": "uint256"
        }
      ],
      "stateMutability": "view",
      "type": "function"
    },
    {
      "inputs": [],
      "name": "getInterval",
      "outputs": [
        {
          "internalType": "uint256",
          "name": "",
          "type": "uint256"
        }
      ],
      "stateMutability": "view",
      "type": "function"
    },
    {
      "inputs": [],
      "name": "getLastTimeStamp",
      "outputs": [
        {
          "internalType": "uint256",
          "name": "",
          "type": "uint256"
        }
      ],
      "stateMutability": "view",
      "type": "function"
    },
    {
      "inputs": [],
      "name": "getNumWords",
      "outputs": [
        {
          "internalType": "uint256",
          "name": "",
          "type": "uint256"
        }
      ],
      "stateMutability": "pure",
      "type": "function"
    },
    {
      "inputs": [],
      "name": "getNumberOfPlayers",
      "outputs": [
        {
          "internalType": "uint256",
          "name": "",
          "type": "uint256"
        }
      ],
      "stateMutability": "view",
      "type": "function"
    },
    {
      "inputs": [
        {
          "internalType": "uint256",
          "name": "index",
          "type": "uint256"
        }
      ],
      "name": "getPlayer",
      "outputs": [
        {
          "internalType": "address",
          "name": "",
          "type": "address"
        }
      ],
      "stateMutability": "view",
      "type": "function"
    },
    {
      "inputs": [],
      "name": "getRaffleState",
      "outputs": [
        {
          "internalType": "enum Raffle.RaffleState",
          "name": "",
          "type": "uint8"
        }
      ],
      "stateMutability": "view",
      "type": "function"
    },
    {
      "inputs": [],
      "name": "getRecentWinner",
      "outputs": [
        {
          "internalType": "address",
          "name": "",
          "type": "address"
        }
      ],
      "stateMutability": "view",
      "type": "function"
    },
    {
      "inputs": [],
      "name": "getRequestConfirmations",
      "outputs": [
        {
          "internalType": "uint256",
          "name": "",
          "type": "uint256"
        }
      ],
      "stateMutability": "pure",
      "type": "function"
    },
    {
      "inputs": [],
      "name": "owner",
      "outputs": [
        {
          "internalType": "address",
          "name": "",
          "type": "address"
        }
      ],
      "stateMutability": "view",
      "type": "function"
    },
    {
      "inputs": [
        {
          "internalType": "bytes",
          "name": "",
          "type": "bytes"
        }
      ],
      "name": "performUpkeep",
      "outputs": [],
      "stateMutability": "nonpayable",
      "type": "function"
    },
    {
      "inputs": [
        {
          "internalType": "uint256",
          "name": "requestId",
          "type": "uint256"
        },
        {
          "internalType": "uint256[]",
          "name": "randomWords",
          "type": "uint256[]"
        }
      ],
      "name": "rawFulfillRandomWords",
      "outputs": [],
      "stateMutability": "nonpayable",
      "type": "function"
    },
    {
      "inputs": [
        {
          "internalType": "uint256",
          "name": "",
          "type": "uint256"
        }
      ],
      "name": "s_randomWords",
      "outputs": [
        {
          "internalType": "uint256",
          "name": "",
          "type": "uint256"
        }
      ],
      "stateMutability": "view",
      "type": "function"
    },
    {
      "inputs": [],
      "name": "s_vrfCoordinator",
      "outputs": [
        {
          "internalType": "contract IVRFCoordinatorV2Plus",
          "name": "",
          "type": "address"
        }
      ],
      "stateMutability": "view",
      "type": "function"
    },
    {
      "inputs": [
        {
          "internalType": "address",
          "name": "_vrfCoordinator",
          "type": "address"
        }
      ],
      "name": "setCoordinator",
      "outputs": [],
      "stateMutability": "nonpayable",
      "type": "function"
    },
    {
      "inputs": [
        {
          "internalType": "address",
          "name": "to",
          "type": "address"
        }
      ],
      "name": "transferOwnership",
      "outputs": [],
      "stateMutability": "nonpayable",
      "type": "function"
    }
  ],
  "bytecode": "0x6101206040523480156200001257600080fd5b5060405162002547380380620025478339818101604052810190620000389190620004a7565b85338060008073ffffffffffffffffffffffffffffffffffffffff168273ffffffffffffffffffffffffffffffffffffffff1603620000ae576040517f08c379a0000000000000000000000000000000000000000000000000000000008152600401620000a590620005a4565b60405180910390fd5b816000806101000a81548173ffffffffffffffffffffffffffffffffffffffff021916908373ffffffffffffffffffffffffffffffffffffffff160217905550600073ffffffffffffffffffffffffffffffffffffffff168173ffffffffffffffffffffffffffffffffffffffff1614620001355762000134816200025760201b60201c565b5b505050600073ffffffffffffffffffffffffffffffffffffffff168173ffffffffffffffffffffffffffffffffffffffff16036200019f576040517fd92e233d00000000000000000000000000000000000000000000000000000000815260040160405180910390fd5b80600260006101000a81548173ffffffffffffffffffffffffffffffffffffffff021916908373ffffffffffffffffffffffffffffffffffffffff1602179055505084608081815250508360a081815250508260e081815250508161010081815250508063ffffffff1660c08163ffffffff16815250506000600760006101000a81548160ff021916908360018111156200023f576200023e620005c6565b5b02179055504260048190555050505050505062000667565b3373ffffffffffffffffffffffffffffffffffffffff168173ffffffffffffffffffffffffffffffffffffffff1603620002c8576040517f08c379a0000000000000000000000000000000000000000000000000000000008152600401620002bf9062000645565b60405180910390fd5b80600160006101000a81548173ffffffffffffffffffffffffffffffffffffffff021916908373ffffffffffffffffffffffffffffffffffffffff1602179055508073ffffffffffffffffffffffffffffffffffffffff1660008054906101000a900473ffffffffffffffffffffffffffffffffffffffff1673ffffffffffffffffffffffffffffffffffffffff167fed8889f560326eb138920d842192f0eb3dd22b4f139c87a2c57538e05bae127860405160405180910390a350565b600080fd5b600073ffffffffffffffffffffffffffffffffffffffff82169050919050565b6000620003b8826200038b565b9050919050565b620003ca81620003ab565b8114620003d657600080fd5b50565b600081519050620003ea81620003bf565b92915050565b6000819050919050565b6200040581620003f0565b81146200041157600080fd5b50565b6000815190506200042581620003fa565b92915050565b6000819050919050565b62000440816200042b565b81146200044c57600080fd5b50565b600081519050620004608162000435565b92915050565b600063ffffffff82169050919050565b620004818162000466565b81146200048d57600080fd5b50565b600081519050620004a18162000476565b92915050565b60008060008060008060c08789031215620004c757620004c662000386565b5b6000620004d789828a01620003d9565b9650506020620004ea89828a0162000414565b9550506040620004fd89828a016200044f565b94505060606200051089828a0162000414565b93505060806200052389828a0162000414565b92505060a06200053689828a0162000490565b9150509295509295509295565b600082825260208201905092915050565b7f43616e6e6f7420736574206f776e657220746f207a65726f0000000000000000600082015250565b60006200058c60188362000543565b9150620005998262000554565b602082019050919050565b60006020820190508181036000830152620005bf816200057d565b9050919050565b7f4e487b7100000000000000000000000000000000000000000000000000000000600052602160045260246000fd5b7f43616e6e6f74207472616e7366657220746f2073656c66000000000000000000600082015250565b60006200062d60178362000543565b91506200063a82620005f5565b602082019050919050565b6000602082019050818103600083015262000660816200061e565b9050919050565b60805160a05160c05160e05161010051611e8d620006ba60003960008181610448015261054b0152600081816109800152610dc801526000610810015260006107b9015260006107df0152611e8d6000f3fe6080604052600436106101145760003560e01c806379ba5097116100a0578063c1c244e811610064578063c1c244e81461034b578063e55ae4e814610376578063f2fde38b146103b3578063f6eaffc8146103dc578063fd6673f51461041957610114565b806379ba50971461028a5780638da5cb5b146102a15780638ea98117146102cc57806391ad27b4146102f55780639eccacf61461032057610114565b80634585e33b116100e75780634585e33b146101a2578063473f1ddc146101cb57806353a2c19a146101f65780635f1b0fd8146102215780636e04ff0d1461024c57610114565b806309bc33a714610119578063115cbaf5146101445780631fe543e31461016f5780632cfcc53914610198575b600080fd5b34801561012557600080fd5b5061012e610444565b60405161013b91906113f0565b60405180910390f35b34801561015057600080fd5b5061015961046c565b6040516101669190611482565b60405180910390f35b34801561017b57600080fd5b5061019660048036038101906101919190611542565b610483565b005b6101a0610549565b005b3480156101ae57600080fd5b506101c960048036038101906101c491906116e3565b6106b8565b005b3480156101d757600080fd5b506101e06108f7565b6040516101ed919061176d565b60405180910390f35b34801561020257600080fd5b5061020b610921565b60405161021891906113f0565b60405180910390f35b34801561022d57600080fd5b50610236610930565b60405161024391906113f0565b60405180910390f35b34801561025857600080fd5b50610273600480360381019061026e91906116e3565b61093d565b604051610281929190611822565b60405180910390f35b34801561029657600080fd5b5061029f610a25565b005b3480156102ad57600080fd5b506102b6610bba565b6040516102c3919061176d565b60405180910390f35b3480156102d857600080fd5b506102f360048036038101906102ee919061187e565b610be3565b005b34801561030157600080fd5b5061030a610dc4565b60405161031791906113f0565b60405180910390f35b34801561032c57600080fd5b50610335610dec565b604051610342919061190a565b60405180910390f35b34801561035757600080fd5b50610360610e12565b60405161036d91906113f0565b60405180910390f35b34801561038257600080fd5b5061039d60048036038101906103989190611925565b610e1c565b6040516103aa919061176d565b60405180910390f35b3480156103bf57600080fd5b506103da60048036038101906103d5919061187e565b610e64565b005b3480156103e857600080fd5b5061040360048036038101906103fe9190611925565b610e78565b60405161041091906113f0565b60405180910390f35b34801561042557600080fd5b5061042e610e9c565b60405161043b91906113f0565b60405180910390f35b60007f0000000000000000000000000000000000000000000000000000000000000000905090565b6000600760009054906101000a900460ff16905090565b600260009054906101000a900473ffffffffffffffffffffffffffffffffffffffff1673ffffffffffffffffffffffffffffffffffffffff163373ffffffffffffffffffffffffffffffffffffffff16146105395733600260009054906101000a900473ffffffffffffffffffffffffffffffffffffffff166040517f1cf993f4000000000000000000000000000000000000000000000000000000008152600401610530929190611952565b60405180910390fd5b610544838383610ea9565b505050565b7f00000000000000000000000000000000000000000000000000000000000000003410156105a3576040517f3038c00a00000000000000000000000000000000000000000000000000000000815260040160405180910390fd5b600060018111156105b7576105b661140b565b5b600760009054906101000a900460ff1660018111156105d9576105d861140b565b5b14610610576040517f1425571c00000000000000000000000000000000000000000000000000000000815260040160405180910390fd5b6006339080600181540180825580915050600190039060005260206000200160009091909190916101000a81548173ffffffffffffffffffffffffffffffffffffffff021916908373ffffffffffffffffffffffffffffffffffffffff1602179055503373ffffffffffffffffffffffffffffffffffffffff167f0805e1d667bddb8a95f0f09880cf94f403fb596ce79928d9f29b74203ba284d460405160405180910390a2565b60006106d26040518060200160405280600081525061093d565b509050806107415747600680549050600760009054906101000a900460ff1660018111156107035761070261140b565b5b6040517f3a8d60860000000000000000000000000000000000000000000000000000000081526004016107389392919061197b565b60405180910390fd5b6001600760006101000a81548160ff021916908360018111156107675761076661140b565b5b02179055506000600260009054906101000a900473ffffffffffffffffffffffffffffffffffffffff1673ffffffffffffffffffffffffffffffffffffffff16639b1c385e6040518060c001604052807f000000000000000000000000000000000000000000000000000000000000000081526020017f00000000000000000000000000000000000000000000000000000000000000008152602001600361ffff1681526020017f000000000000000000000000000000000000000000000000000000000000000063ffffffff168152602001600163ffffffff1681526020016108616040518060200160405280600115158152506110dc565b8152506040518263ffffffff1660e01b81526004016108809190611ae9565b6020604051808303816000875af115801561089f573d6000803e3d6000fd5b505050506040513d601f19601f820116820180604052508101906108c39190611b20565b9050807fcd6e45c8998311cab7e9d4385596cac867e20a0587194b954fa3a731c93ce78b60405160405180910390a2505050565b6000600560009054906101000a900473ffffffffffffffffffffffffffffffffffffffff16905090565b6000600163ffffffff16905090565b6000600361ffff16905090565b600060606000600760009054906101000a900460ff1660018111156109655761096461140b565b5b600060018111156109795761097861140b565b5b14905060007f0000000000000000000000000000000000000000000000000000000000000000600454426109ad9190611b7c565b119050600080600680549050119050600080471190508380156109cd5750825b80156109d65750815b80156109df5750805b9550856040518060400160405280600381526020017f30783000000000000000000000000000000000000000000000000000000000008152509550955050505050915091565b600160009054906101000a900473ffffffffffffffffffffffffffffffffffffffff1673ffffffffffffffffffffffffffffffffffffffff163373ffffffffffffffffffffffffffffffffffffffff1614610ab5576040517f08c379a0000000000000000000000000000000000000000000000000000000008152600401610aac90611c0d565b60405180910390fd5b60008060009054906101000a900473ffffffffffffffffffffffffffffffffffffffff169050336000806101000a81548173ffffffffffffffffffffffffffffffffffffffff021916908373ffffffffffffffffffffffffffffffffffffffff1602179055506000600160006101000a81548173ffffffffffffffffffffffffffffffffffffffff021916908373ffffffffffffffffffffffffffffffffffffffff1602179055503373ffffffffffffffffffffffffffffffffffffffff168173ffffffffffffffffffffffffffffffffffffffff167f8be0079c531659141344cd1fd0a4f28419497f9722a3daafe3b4186f6b6457e060405160405180910390a350565b60008060009054906101000a900473ffffffffffffffffffffffffffffffffffffffff16905090565b610beb610bba565b73ffffffffffffffffffffffffffffffffffffffff163373ffffffffffffffffffffffffffffffffffffffff1614158015610c745750600260009054906101000a900473ffffffffffffffffffffffffffffffffffffffff1673ffffffffffffffffffffffffffffffffffffffff163373ffffffffffffffffffffffffffffffffffffffff1614155b15610ce35733610c82610bba565b600260009054906101000a900473ffffffffffffffffffffffffffffffffffffffff166040517f061db9c1000000000000000000000000000000000000000000000000000000008152600401610cda93929190611c2d565b60405180910390fd5b600073ffffffffffffffffffffffffffffffffffffffff168173ffffffffffffffffffffffffffffffffffffffff1603610d49576040517fd92e233d00000000000000000000000000000000000000000000000000000000815260040160405180910390fd5b80600260006101000a81548173ffffffffffffffffffffffffffffffffffffffff021916908373ffffffffffffffffffffffffffffffffffffffff1602179055507fd1a6a14209a385a964d036e404cb5cfb71f4000cdb03c9366292430787261be681604051610db9919061176d565b60405180910390a150565b60007f0000000000000000000000000000000000000000000000000000000000000000905090565b600260009054906101000a900473ffffffffffffffffffffffffffffffffffffffff1681565b6000600454905090565b600060068281548110610e3257610e31611c64565b5b9060005260206000200160009054906101000a900473ffffffffffffffffffffffffffffffffffffffff169050919050565b610e6c611174565b610e7581611204565b50565b60038181548110610e8857600080fd5b906000526020600020016000915090505481565b6000600680549050905090565b600060068054905083836000818110610ec557610ec4611c64565b5b90506020020135610ed69190611cc2565b9050600060068281548110610eee57610eed611c64565b5b9060005260206000200160009054906101000a900473ffffffffffffffffffffffffffffffffffffffff16905080600560006101000a81548173ffffffffffffffffffffffffffffffffffffffff021916908373ffffffffffffffffffffffffffffffffffffffff160217905550600067ffffffffffffffff811115610f7757610f766115b8565b5b604051908082528060200260200182016040528015610fa55781602001602082028036833780820191505090505b5060069080519060200190610fbb929190611330565b506000600760006101000a81548160ff02191690836001811115610fe257610fe161140b565b5b0217905550426004819055508073ffffffffffffffffffffffffffffffffffffffff167f5b690ec4a06fe979403046eaeea5b3ce38524683c3001f662c8b5a829632f7df60405160405180910390a260008173ffffffffffffffffffffffffffffffffffffffff164760405161105790611d24565b60006040518083038185875af1925050503d8060008114611094576040519150601f19603f3d011682016040523d82523d6000602084013e611099565b606091505b50509050806110d4576040517fa3cc2cc200000000000000000000000000000000000000000000000000000000815260040160405180910390fd5b505050505050565b60607f92fd13387c7fe7befbc38d303d6468778fb9731bc4583f17d92989c6fcfdeaaa826040516024016111109190611d64565b604051602081830303815290604052907bffffffffffffffffffffffffffffffffffffffffffffffffffffffff19166020820180517bffffffffffffffffffffffffffffffffffffffffffffffffffffffff83818316178352505050509050919050565b60008054906101000a900473ffffffffffffffffffffffffffffffffffffffff1673ffffffffffffffffffffffffffffffffffffffff163373ffffffffffffffffffffffffffffffffffffffff1614611202576040517f08c379a00000000000000000000000000000000000000000000000000000000081526004016111f990611dcb565b60405180910390fd5b565b3373ffffffffffffffffffffffffffffffffffffffff168173ffffffffffffffffffffffffffffffffffffffff1603611272576040517f08c379a000000000000000000000000000000000000000000000000000000000815260040161126990611e37565b60405180910390fd5b80600160006101000a81548173ffffffffffffffffffffffffffffffffffffffff021916908373ffffffffffffffffffffffffffffffffffffffff1602179055508073ffffffffffffffffffffffffffffffffffffffff1660008054906101000a900473ffffffffffffffffffffffffffffffffffffffff1673ffffffffffffffffffffffffffffffffffffffff167fed8889f560326eb138920d842192f0eb3dd22b4f139c87a2c57538e05bae127860405160405180910390a350565b8280548282559060005260206000209081019282156113a9579160200282015b828111156113a85782518260006101000a81548173ffffffffffffffffffffffffffffffffffffffff021916908373ffffffffffffffffffffffffffffffffffffffff16021790555091602001919060010190611350565b5b5090506113b691906113ba565b5090565b5b808211156113d35760008160009055506001016113bb565b5090565b6000819050919050565b6113ea816113d7565b82525050565b600060208201905061140560008301846113e1565b92915050565b7f4e487b7100000000000000000000000000000000000000000000000000000000600052602160045260246000fd5b6002811061144b5761144a61140b565b5b50565b600081905061145c8261143a565b919050565b600061146c8261144e565b9050919050565b61147c81611461565b82525050565b60006020820190506114976000830184611473565b92915050565b6000604051905090565b600080fd5b600080fd5b6114ba816113d7565b81146114c557600080fd5b50565b6000813590506114d7816114b1565b92915050565b600080fd5b600080fd5b600080fd5b60008083601f840112611502576115016114dd565b5b8235905067ffffffffffffffff81111561151f5761151e6114e2565b5b60208301915083602082028301111561153b5761153a6114e7565b5b9250929050565b60008060006040848603121561155b5761155a6114a7565b5b6000611569868287016114c8565b935050602084013567ffffffffffffffff81111561158a576115896114ac565b5b611596868287016114ec565b92509250509250925092565b600080fd5b6000601f19601f8301169050919050565b7f4e487b7100000000000000000000000000000000000000000000000000000000600052604160045260246000fd5b6115f0826115a7565b810181811067ffffffffffffffff8211171561160f5761160e6115b8565b5b80604052505050565b600061162261149d565b905061162e82826115e7565b919050565b600067ffffffffffffffff82111561164e5761164d6115b8565b5b611657826115a7565b9050602081019050919050565b82818337600083830152505050565b600061168661168184611633565b611618565b9050828152602081018484840111156116a2576116a16115a2565b5b6116ad848285611664565b509392505050565b600082601f8301126116ca576116c96114dd565b5b81356116da848260208601611673565b91505092915050565b6000602082840312156116f9576116f86114a7565b5b600082013567ffffffffffffffff811115611717576117166114ac565b5b611723848285016116b5565b91505092915050565b600073ffffffffffffffffffffffffffffffffffffffff82169050919050565b60006117578261172c565b9050919050565b6117678161174c565b82525050565b6000602082019050611782600083018461175e565b92915050565b60008115159050919050565b61179d81611788565b82525050565b600081519050919050565b600082825260208201905092915050565b60005b838110156117dd5780820151818401526020810190506117c2565b60008484015250505050565b60006117f4826117a3565b6117fe81856117ae565b935061180e8185602086016117bf565b611817816115a7565b840191505092915050565b60006040820190506118376000830185611794565b818103602083015261184981846117e9565b90509392505050565b61185b8161174c565b811461186657600080fd5b50565b60008135905061187881611852565b92915050565b600060208284031215611894576118936114a7565b5b60006118a284828501611869565b91505092915050565b6000819050919050565b60006118d06118cb6118c68461172c565b6118ab565b61172c565b9050919050565b60006118e2826118b5565b9050919050565b60006118f4826118d7565b9050919050565b611904816118e9565b82525050565b600060208201905061191f60008301846118fb565b92915050565b60006020828403121561193b5761193a6114a7565b5b6000611949848285016114c8565b91505092915050565b6000604082019050611967600083018561175e565b611974602083018461175e565b9392505050565b600060608201905061199060008301866113e1565b61199d60208301856113e1565b6119aa60408301846113e1565b949350505050565b6000819050919050565b6119c5816119b2565b82525050565b6119d4816113d7565b82525050565b600061ffff82169050919050565b6119f1816119da565b82525050565b600063ffffffff82169050919050565b611a10816119f7565b82525050565b600082825260208201905092915050565b6000611a32826117a3565b611a3c8185611a16565b9350611a4c8185602086016117bf565b611a55816115a7565b840191505092915050565b600060c083016000830151611a7860008601826119bc565b506020830151611a8b60208601826119cb565b506040830151611a9e60408601826119e8565b506060830151611ab16060860182611a07565b506080830151611ac46080860182611a07565b5060a083015184820360a0860152611adc8282611a27565b9150508091505092915050565b60006020820190508181036000830152611b038184611a60565b905092915050565b600081519050611b1a816114b1565b92915050565b600060208284031215611b3657611b356114a7565b5b6000611b4484828501611b0b565b91505092915050565b7f4e487b7100000000000000000000000000000000000000000000000000000000600052601160045260246000fd5b6000611b87826113d7565b9150611b92836113d7565b9250828203905081811115611baa57611ba9611b4d565b5b92915050565b600082825260208201905092915050565b7f4d7573742062652070726f706f736564206f776e657200000000000000000000600082015250565b6000611bf7601683611bb0565b9150611c0282611bc1565b602082019050919050565b60006020820190508181036000830152611c2681611bea565b9050919050565b6000606082019050611c42600083018661175e565b611c4f602083018561175e565b611c5c604083018461175e565b949350505050565b7f4e487b7100000000000000000000000000000000000000000000000000000000600052603260045260246000fd5b7f4e487b7100000000000000000000000000000000000000000000000000000000600052601260045260246000fd5b6000611ccd826113d7565b9150611cd8836113d7565b925082611ce857611ce7611c93565b5b828206905092915050565b600081905092915050565b50565b6000611d0e600083611cf3565b9150611d1982611cfe565b600082019050919050565b6000611d2f82611d01565b9150819050919050565b611d4281611788565b82525050565b602082016000820151611d5e6000850182611d39565b50505050565b6000602082019050611d796000830184611d48565b92915050565b7f4f6e6c792063616c6c61626c65206279206f776e657200000000000000000000600082015250565b6000611db5601683611bb0565b9150611dc082611d7f565b602082019050919050565b60006020820190508181036000830152611de481611da8565b9050919050565b7f43616e6e6f74207472616e7366657220746f2073656c66000000000000000000600082015250565b6000611e21601783611bb0565b9150611e2c82611deb565b602082019050919050565b60006020820190508181036000830152611e5081611e14565b905091905056fea26469706673582212201bd8b84542f0222d2969de88858ffb64133d572eec600dc105e8894e29ae077b64736f6c63430008130033",
  "linkReferences": {},
  "deployedLinkReferences": {}
}