{
  "_format": "hh-sol-artifact-1",
  "contractName": "Raffle",
  "sourceName": "contracts/Raffle.sol",
  "abi": [
    {
      "inputs": [
        {
          "internalType": "address",
          "name": "vrfCoordinatorV2_5",
          "type": "address"
        },
        {
          "internalType": "uint256",
          "name": "entranceFee",
          "type": "uint256"
        },
        {
          "internalType": "bytes32",
          "name": "keyHash",
          "type": "bytes32"
        },
        {
          "internalType": "uint64",
          "name": "subscriptionId",
          "type": "uint64"
        },
        {
          "internalType": "uint32",
          "name": "callBackGasLimit",
          "type": "uint32"
        }
      ],
      "stateMutability": "nonpayable",
      "type": "constructor"
    },
    {
      "inputs": [
        {
          "internalType": "address",
          "name": "have",
          "type": "address"
        },
        {
          "internalType": "address",
          "name": "want",
          "type": "address"
        }
      ],
      "name": "OnlyCoordinatorCanFulfill",
      "type": "error"
    },
    {
      "inputs": [
        {
          "internalType": "address",
          "name": "have",
          "type": "address"
        },
        {
          "internalType": "address",
          "name": "owner",
          "type": "address"
        },
        {
          "internalType": "address",
          "name": "coordinator",
          "type": "address"
        }
      ],
      "name": "OnlyOwnerOrCoordinator",
      "type": "error"
    },
    {
      "inputs": [],
      "name": "Raffle__NotEnoughEth",
      "type": "error"
    },
    {
      "inputs": [],
      "name": "Raffle__TransferToLastWinnerFailed",
      "type": "error"
    },
    {
      "inputs": [],
      "name": "ZeroAddress",
      "type": "error"
    },
    {
      "anonymous": false,
      "inputs": [
        {
          "indexed": false,
          "internalType": "address",
          "name": "vrfCoordinator",
          "type": "address"
        }
      ],
      "name": "CoordinatorSet",
      "type": "event"
    },
    {
      "anonymous": false,
      "inputs": [
        {
          "indexed": true,
          "internalType": "address",
          "name": "from",
          "type": "address"
        },
        {
          "indexed": true,
          "internalType": "address",
          "name": "to",
          "type": "address"
        }
      ],
      "name": "OwnershipTransferRequested",
      "type": "event"
    },
    {
      "anonymous": false,
      "inputs": [
        {
          "indexed": true,
          "internalType": "address",
          "name": "from",
          "type": "address"
        },
        {
          "indexed": true,
          "internalType": "address",
          "name": "to",
          "type": "address"
        }
      ],
      "name": "OwnershipTransferred",
      "type": "event"
    },
    {
      "anonymous": false,
      "inputs": [
        {
          "indexed": true,
          "internalType": "address",
          "name": "player",
          "type": "address"
        }
      ],
      "name": "RaffleEnter",
      "type": "event"
    },
    {
      "anonymous": false,
      "inputs": [
        {
          "indexed": true,
          "internalType": "uint256",
          "name": "requestId",
          "type": "uint256"
        }
      ],
      "name": "RequestedRaffleWinner",
      "type": "event"
    },
    {
      "anonymous": false,
      "inputs": [
        {
          "indexed": true,
          "internalType": "address",
          "name": "winner",
          "type": "address"
        }
      ],
      "name": "WinnerPicked",
      "type": "event"
    },
    {
      "inputs": [],
      "name": "acceptOwnership",
      "outputs": [],
      "stateMutability": "nonpayable",
      "type": "function"
    },
    {
      "inputs": [],
      "name": "enterRaffle",
      "outputs": [],
      "stateMutability": "payable",
      "type": "function"
    },
    {
      "inputs": [],
      "name": "getEntranceFee",
      "outputs": [
        {
          "internalType": "uint256",
          "name": "",
          "type": "uint256"
        }
      ],
      "stateMutability": "view",
      "type": "function"
    },
    {
      "inputs": [],
      "name": "getLastWinner",
      "outputs": [
        {
          "internalType": "address",
          "name": "",
          "type": "address"
        }
      ],
      "stateMutability": "view",
      "type": "function"
    },
    {
      "inputs": [
        {
          "internalType": "uint256",
          "name": "index",
          "type": "uint256"
        }
      ],
      "name": "getPlayer",
      "outputs": [
        {
          "internalType": "address",
          "name": "",
          "type": "address"
        }
      ],
      "stateMutability": "view",
      "type": "function"
    },
    {
      "inputs": [],
      "name": "owner",
      "outputs": [
        {
          "internalType": "address",
          "name": "",
          "type": "address"
        }
      ],
      "stateMutability": "view",
      "type": "function"
    },
    {
      "inputs": [
        {
          "internalType": "uint256",
          "name": "requestId",
          "type": "uint256"
        },
        {
          "internalType": "uint256[]",
          "name": "randomWords",
          "type": "uint256[]"
        }
      ],
      "name": "rawFulfillRandomWords",
      "outputs": [],
      "stateMutability": "nonpayable",
      "type": "function"
    },
    {
      "inputs": [],
      "name": "requestRandomWinner",
      "outputs": [],
      "stateMutability": "nonpayable",
      "type": "function"
    },
    {
      "inputs": [
        {
          "internalType": "uint256",
          "name": "",
          "type": "uint256"
        }
      ],
      "name": "s_randomWords",
      "outputs": [
        {
          "internalType": "uint256",
          "name": "",
          "type": "uint256"
        }
      ],
      "stateMutability": "view",
      "type": "function"
    },
    {
      "inputs": [],
      "name": "s_requestId",
      "outputs": [
        {
          "internalType": "uint256",
          "name": "",
          "type": "uint256"
        }
      ],
      "stateMutability": "view",
      "type": "function"
    },
    {
      "inputs": [],
      "name": "s_vrfCoordinator",
      "outputs": [
        {
          "internalType": "contract IVRFCoordinatorV2Plus",
          "name": "",
          "type": "address"
        }
      ],
      "stateMutability": "view",
      "type": "function"
    },
    {
      "inputs": [
        {
          "internalType": "address",
          "name": "_vrfCoordinator",
          "type": "address"
        }
      ],
      "name": "setCoordinator",
      "outputs": [],
      "stateMutability": "nonpayable",
      "type": "function"
    },
    {
      "inputs": [
        {
          "internalType": "address",
          "name": "to",
          "type": "address"
        }
      ],
      "name": "transferOwnership",
      "outputs": [],
      "stateMutability": "nonpayable",
      "type": "function"
    }
  ],
  "bytecode": "0x6101006040523480156200001257600080fd5b5060405162001c9138038062001c918339818101604052810190620000389190620004c1565b84338060008073ffffffffffffffffffffffffffffffffffffffff168273ffffffffffffffffffffffffffffffffffffffff1603620000ae576040517f08c379a0000000000000000000000000000000000000000000000000000000008152600401620000a590620005aa565b60405180910390fd5b816000806101000a81548173ffffffffffffffffffffffffffffffffffffffff021916908373ffffffffffffffffffffffffffffffffffffffff160217905550600073ffffffffffffffffffffffffffffffffffffffff168173ffffffffffffffffffffffffffffffffffffffff1614620001355762000134816200022c60201b60201c565b5b505050600073ffffffffffffffffffffffffffffffffffffffff168173ffffffffffffffffffffffffffffffffffffffff16036200019f576040517fd92e233d00000000000000000000000000000000000000000000000000000000815260040160405180910390fd5b80600260006101000a81548173ffffffffffffffffffffffffffffffffffffffff021916908373ffffffffffffffffffffffffffffffffffffffff160217905550508260e081815250508167ffffffffffffffff1660c08167ffffffffffffffff16815250508360a081815250508063ffffffff1660808163ffffffff168152505050505050506200063e565b3373ffffffffffffffffffffffffffffffffffffffff168173ffffffffffffffffffffffffffffffffffffffff16036200029d576040517f08c379a000000000000000000000000000000000000000000000000000000000815260040162000294906200061c565b60405180910390fd5b80600160006101000a81548173ffffffffffffffffffffffffffffffffffffffff021916908373ffffffffffffffffffffffffffffffffffffffff1602179055508073ffffffffffffffffffffffffffffffffffffffff1660008054906101000a900473ffffffffffffffffffffffffffffffffffffffff1673ffffffffffffffffffffffffffffffffffffffff167fed8889f560326eb138920d842192f0eb3dd22b4f139c87a2c57538e05bae127860405160405180910390a350565b600080fd5b600073ffffffffffffffffffffffffffffffffffffffff82169050919050565b60006200038d8262000360565b9050919050565b6200039f8162000380565b8114620003ab57600080fd5b50565b600081519050620003bf8162000394565b92915050565b6000819050919050565b620003da81620003c5565b8114620003e657600080fd5b50565b600081519050620003fa81620003cf565b92915050565b6000819050919050565b620004158162000400565b81146200042157600080fd5b50565b60008151905062000435816200040a565b92915050565b600067ffffffffffffffff82169050919050565b6200045a816200043b565b81146200046657600080fd5b50565b6000815190506200047a816200044f565b92915050565b600063ffffffff82169050919050565b6200049b8162000480565b8114620004a757600080fd5b50565b600081519050620004bb8162000490565b92915050565b600080600080600060a08688031215620004e057620004df6200035b565b5b6000620004f088828901620003ae565b95505060206200050388828901620003e9565b9450506040620005168882890162000424565b9350506060620005298882890162000469565b92505060806200053c88828901620004aa565b9150509295509295909350565b600082825260208201905092915050565b7f43616e6e6f7420736574206f776e657220746f207a65726f0000000000000000600082015250565b60006200059260188362000549565b91506200059f826200055a565b602082019050919050565b60006020820190508181036000830152620005c58162000583565b9050919050565b7f43616e6e6f74207472616e7366657220746f2073656c66000000000000000000600082015250565b60006200060460178362000549565b91506200061182620005cc565b602082019050919050565b600060208201905081810360008301526200063781620005f5565b9050919050565b60805160a05160c05160e0516116126200067f600039600061050e015260006105340152600081816102cf01526103bb0152600061056f01526116126000f3fe6080604052600436106100c25760003560e01c80638ea981171161007f578063e89e106a11610059578063e89e106a1461020f578063f2fde38b1461023a578063f6eaffc814610263578063f88649a1146102a0576100c2565b80638ea981171461017e5780639eccacf6146101a7578063e55ae4e8146101d2576100c2565b806309bc33a7146100c75780631fe543e3146100f25780632cfcc5391461011b578063522a1f0b1461012557806379ba50971461013c5780638da5cb5b14610153575b600080fd5b3480156100d357600080fd5b506100dc6102cb565b6040516100e99190610ead565b60405180910390f35b3480156100fe57600080fd5b5061011960048036038101906101149190610f63565b6102f3565b005b6101236103b9565b005b34801561013157600080fd5b5061013a6104bb565b005b34801561014857600080fd5b5061015161062a565b005b34801561015f57600080fd5b506101686107bf565b6040516101759190611004565b60405180910390f35b34801561018a57600080fd5b506101a560048036038101906101a0919061104b565b6107e8565b005b3480156101b357600080fd5b506101bc6109c9565b6040516101c991906110d7565b60405180910390f35b3480156101de57600080fd5b506101f960048036038101906101f491906110f2565b6109ef565b6040516102069190611004565b60405180910390f35b34801561021b57600080fd5b50610224610a37565b6040516102319190610ead565b60405180910390f35b34801561024657600080fd5b50610261600480360381019061025c919061104b565b610a3d565b005b34801561026f57600080fd5b5061028a600480360381019061028591906110f2565b610a51565b6040516102979190610ead565b60405180910390f35b3480156102ac57600080fd5b506102b5610a75565b6040516102c29190611004565b60405180910390f35b60007f0000000000000000000000000000000000000000000000000000000000000000905090565b600260009054906101000a900473ffffffffffffffffffffffffffffffffffffffff1673ffffffffffffffffffffffffffffffffffffffff163373ffffffffffffffffffffffffffffffffffffffff16146103a95733600260009054906101000a900473ffffffffffffffffffffffffffffffffffffffff166040517f1cf993f40000000000000000000000000000000000000000000000000000000081526004016103a092919061111f565b60405180910390fd5b6103b4838383610a9f565b505050565b7f0000000000000000000000000000000000000000000000000000000000000000341015610413576040517fa10e43c700000000000000000000000000000000000000000000000000000000815260040160405180910390fd5b6003339080600181540180825580915050600190039060005260206000200160009091909190916101000a81548173ffffffffffffffffffffffffffffffffffffffff021916908373ffffffffffffffffffffffffffffffffffffffff1602179055503373ffffffffffffffffffffffffffffffffffffffff167f0805e1d667bddb8a95f0f09880cf94f403fb596ce79928d9f29b74203ba284d460405160405180910390a2565b6104c3610c40565b600260009054906101000a900473ffffffffffffffffffffffffffffffffffffffff1673ffffffffffffffffffffffffffffffffffffffff16639b1c385e6040518060c001604052807f000000000000000000000000000000000000000000000000000000000000000081526020017f000000000000000000000000000000000000000000000000000000000000000067ffffffffffffffff168152602001600361ffff1681526020017f000000000000000000000000000000000000000000000000000000000000000063ffffffff168152602001600163ffffffff1681526020016105c0604051806020016040528060011515815250610cd0565b8152506040518263ffffffff1660e01b81526004016105df91906112c5565b6020604051808303816000875af11580156105fe573d6000803e3d6000fd5b505050506040513d601f19601f8201168201806040525081019061062291906112fc565b600581905550565b600160009054906101000a900473ffffffffffffffffffffffffffffffffffffffff1673ffffffffffffffffffffffffffffffffffffffff163373ffffffffffffffffffffffffffffffffffffffff16146106ba576040517f08c379a00000000000000000000000000000000000000000000000000000000081526004016106b190611386565b60405180910390fd5b60008060009054906101000a900473ffffffffffffffffffffffffffffffffffffffff169050336000806101000a81548173ffffffffffffffffffffffffffffffffffffffff021916908373ffffffffffffffffffffffffffffffffffffffff1602179055506000600160006101000a81548173ffffffffffffffffffffffffffffffffffffffff021916908373ffffffffffffffffffffffffffffffffffffffff1602179055503373ffffffffffffffffffffffffffffffffffffffff168173ffffffffffffffffffffffffffffffffffffffff167f8be0079c531659141344cd1fd0a4f28419497f9722a3daafe3b4186f6b6457e060405160405180910390a350565b60008060009054906101000a900473ffffffffffffffffffffffffffffffffffffffff16905090565b6107f06107bf565b73ffffffffffffffffffffffffffffffffffffffff163373ffffffffffffffffffffffffffffffffffffffff16141580156108795750600260009054906101000a900473ffffffffffffffffffffffffffffffffffffffff1673ffffffffffffffffffffffffffffffffffffffff163373ffffffffffffffffffffffffffffffffffffffff1614155b156108e857336108876107bf565b600260009054906101000a900473ffffffffffffffffffffffffffffffffffffffff166040517f061db9c10000000000000000000000000000000000000000000000000000000081526004016108df939291906113a6565b60405180910390fd5b600073ffffffffffffffffffffffffffffffffffffffff168173ffffffffffffffffffffffffffffffffffffffff160361094e576040517fd92e233d00000000000000000000000000000000000000000000000000000000815260040160405180910390fd5b80600260006101000a81548173ffffffffffffffffffffffffffffffffffffffff021916908373ffffffffffffffffffffffffffffffffffffffff1602179055507fd1a6a14209a385a964d036e404cb5cfb71f4000cdb03c9366292430787261be6816040516109be9190611004565b60405180910390a150565b600260009054906101000a900473ffffffffffffffffffffffffffffffffffffffff1681565b600060038281548110610a0557610a046113dd565b5b9060005260206000200160009054906101000a900473ffffffffffffffffffffffffffffffffffffffff169050919050565b60055481565b610a45610c40565b610a4e81610d68565b50565b60048181548110610a6157600080fd5b906000526020600020016000915090505481565b6000600660009054906101000a900473ffffffffffffffffffffffffffffffffffffffff16905090565b600060038054905083836000818110610abb57610aba6113dd565b5b90506020020135610acc919061143b565b9050600060038281548110610ae457610ae36113dd565b5b9060005260206000200160009054906101000a900473ffffffffffffffffffffffffffffffffffffffff16905080600660006101000a81548173ffffffffffffffffffffffffffffffffffffffff021916908373ffffffffffffffffffffffffffffffffffffffff16021790555060008173ffffffffffffffffffffffffffffffffffffffff1647604051610b789061149d565b60006040518083038185875af1925050503d8060008114610bb5576040519150601f19603f3d011682016040523d82523d6000602084013e610bba565b606091505b5050905080610bf5576040517fa3cc2cc200000000000000000000000000000000000000000000000000000000815260040160405180910390fd5b8173ffffffffffffffffffffffffffffffffffffffff167f5b690ec4a06fe979403046eaeea5b3ce38524683c3001f662c8b5a829632f7df60405160405180910390a2505050505050565b60008054906101000a900473ffffffffffffffffffffffffffffffffffffffff1673ffffffffffffffffffffffffffffffffffffffff163373ffffffffffffffffffffffffffffffffffffffff1614610cce576040517f08c379a0000000000000000000000000000000000000000000000000000000008152600401610cc5906114fe565b60405180910390fd5b565b60607f92fd13387c7fe7befbc38d303d6468778fb9731bc4583f17d92989c6fcfdeaaa82604051602401610d049190611555565b604051602081830303815290604052907bffffffffffffffffffffffffffffffffffffffffffffffffffffffff19166020820180517bffffffffffffffffffffffffffffffffffffffffffffffffffffffff83818316178352505050509050919050565b3373ffffffffffffffffffffffffffffffffffffffff168173ffffffffffffffffffffffffffffffffffffffff1603610dd6576040517f08c379a0000000000000000000000000000000000000000000000000000000008152600401610dcd906115bc565b60405180910390fd5b80600160006101000a81548173ffffffffffffffffffffffffffffffffffffffff021916908373ffffffffffffffffffffffffffffffffffffffff1602179055508073ffffffffffffffffffffffffffffffffffffffff1660008054906101000a900473ffffffffffffffffffffffffffffffffffffffff1673ffffffffffffffffffffffffffffffffffffffff167fed8889f560326eb138920d842192f0eb3dd22b4f139c87a2c57538e05bae127860405160405180910390a350565b6000819050919050565b610ea781610e94565b82525050565b6000602082019050610ec26000830184610e9e565b92915050565b600080fd5b600080fd5b610edb81610e94565b8114610ee657600080fd5b50565b600081359050610ef881610ed2565b92915050565b600080fd5b600080fd5b600080fd5b60008083601f840112610f2357610f22610efe565b5b8235905067ffffffffffffffff811115610f4057610f3f610f03565b5b602083019150836020820283011115610f5c57610f5b610f08565b5b9250929050565b600080600060408486031215610f7c57610f7b610ec8565b5b6000610f8a86828701610ee9565b935050602084013567ffffffffffffffff811115610fab57610faa610ecd565b5b610fb786828701610f0d565b92509250509250925092565b600073ffffffffffffffffffffffffffffffffffffffff82169050919050565b6000610fee82610fc3565b9050919050565b610ffe81610fe3565b82525050565b60006020820190506110196000830184610ff5565b92915050565b61102881610fe3565b811461103357600080fd5b50565b6000813590506110458161101f565b92915050565b60006020828403121561106157611060610ec8565b5b600061106f84828501611036565b91505092915050565b6000819050919050565b600061109d61109861109384610fc3565b611078565b610fc3565b9050919050565b60006110af82611082565b9050919050565b60006110c1826110a4565b9050919050565b6110d1816110b6565b82525050565b60006020820190506110ec60008301846110c8565b92915050565b60006020828403121561110857611107610ec8565b5b600061111684828501610ee9565b91505092915050565b60006040820190506111346000830185610ff5565b6111416020830184610ff5565b9392505050565b6000819050919050565b61115b81611148565b82525050565b61116a81610e94565b82525050565b600061ffff82169050919050565b61118781611170565b82525050565b600063ffffffff82169050919050565b6111a68161118d565b82525050565b600081519050919050565b600082825260208201905092915050565b60005b838110156111e65780820151818401526020810190506111cb565b60008484015250505050565b6000601f19601f8301169050919050565b600061120e826111ac565b61121881856111b7565b93506112288185602086016111c8565b611231816111f2565b840191505092915050565b600060c0830160008301516112546000860182611152565b5060208301516112676020860182611161565b50604083015161127a604086018261117e565b50606083015161128d606086018261119d565b5060808301516112a0608086018261119d565b5060a083015184820360a08601526112b88282611203565b9150508091505092915050565b600060208201905081810360008301526112df818461123c565b905092915050565b6000815190506112f681610ed2565b92915050565b60006020828403121561131257611311610ec8565b5b6000611320848285016112e7565b91505092915050565b600082825260208201905092915050565b7f4d7573742062652070726f706f736564206f776e657200000000000000000000600082015250565b6000611370601683611329565b915061137b8261133a565b602082019050919050565b6000602082019050818103600083015261139f81611363565b9050919050565b60006060820190506113bb6000830186610ff5565b6113c86020830185610ff5565b6113d56040830184610ff5565b949350505050565b7f4e487b7100000000000000000000000000000000000000000000000000000000600052603260045260246000fd5b7f4e487b7100000000000000000000000000000000000000000000000000000000600052601260045260246000fd5b600061144682610e94565b915061145183610e94565b9250826114615761146061140c565b5b828206905092915050565b600081905092915050565b50565b600061148760008361146c565b915061149282611477565b600082019050919050565b60006114a88261147a565b9150819050919050565b7f4f6e6c792063616c6c61626c65206279206f776e657200000000000000000000600082015250565b60006114e8601683611329565b91506114f3826114b2565b602082019050919050565b60006020820190508181036000830152611517816114db565b9050919050565b60008115159050919050565b6115338161151e565b82525050565b60208201600082015161154f600085018261152a565b50505050565b600060208201905061156a6000830184611539565b92915050565b7f43616e6e6f74207472616e7366657220746f2073656c66000000000000000000600082015250565b60006115a6601783611329565b91506115b182611570565b602082019050919050565b600060208201905081810360008301526115d581611599565b905091905056fea26469706673582212202016104afcd593974d77d608882033a389da044508a0ee05ff8f8473d095fb7964736f6c63430008130033",
  "linkReferences": {},
  "deployedLinkReferences": {}
}