{
  "_format": "hh-sol-artifact-1",
  "contractName": "Raffle",
  "sourceName": "contracts/Raffle.sol",
  "abi": [
    {
      "inputs": [
        {
          "internalType": "uint256",
          "name": "entranceFee",
          "type": "uint256"
        }
      ],
      "stateMutability": "nonpayable",
      "type": "constructor"
    },
    {
      "inputs": [],
      "name": "Raffle_NotEnoughEth",
      "type": "error"
    },
    {
      "anonymous": false,
      "inputs": [
        {
          "indexed": true,
          "internalType": "address",
          "name": "player",
          "type": "address"
        }
      ],
      "name": "RaffleEnter",
      "type": "event"
    },
    {
      "inputs": [],
      "name": "enterRaffle",
      "outputs": [],
      "stateMutability": "payable",
      "type": "function"
    },
    {
      "inputs": [],
      "name": "getEntranceFee",
      "outputs": [
        {
          "internalType": "uint256",
          "name": "",
          "type": "uint256"
        }
      ],
      "stateMutability": "view",
      "type": "function"
    }
  ],
  "bytecode": "0x60a060405234801561001057600080fd5b506040516102bf3803806102bf8339818101604052810190610032919061007b565b8060808181525050506100a8565b600080fd5b6000819050919050565b61005881610045565b811461006357600080fd5b50565b6000815190506100758161004f565b92915050565b60006020828403121561009157610090610040565b5b600061009f84828501610066565b91505092915050565b6080516101f76100c86000396000818160670152608d01526101f76000f3fe6080604052600436106100295760003560e01c806309bc33a71461002e5780632cfcc53914610059575b600080fd5b34801561003a57600080fd5b50610043610063565b60405161005091906101a6565b60405180910390f35b61006161008b565b005b60007f0000000000000000000000000000000000000000000000000000000000000000905090565b7f00000000000000000000000000000000000000000000000000000000000000003410156100e5576040517f2a7e0d6700000000000000000000000000000000000000000000000000000000815260040160405180910390fd5b6000339080600181540180825580915050600190039060005260206000200160009091909190916101000a81548173ffffffffffffffffffffffffffffffffffffffff021916908373ffffffffffffffffffffffffffffffffffffffff1602179055503373ffffffffffffffffffffffffffffffffffffffff167f0805e1d667bddb8a95f0f09880cf94f403fb596ce79928d9f29b74203ba284d460405160405180910390a2565b6000819050919050565b6101a08161018d565b82525050565b60006020820190506101bb6000830184610197565b9291505056fea2646970667358221220b421953dc40c200f211f3da00da1d00d18ca477f6fd254e8ad524c87dc5f82c064736f6c63430008080033",
  "linkReferences": {},
  "deployedLinkReferences": {}
}