{
  "_format": "hh-sol-artifact-1",
  "contractName": "Raffle",
  "sourceName": "contracts/Raffle.sol",
  "abi": [
    {
      "inputs": [
        {
          "internalType": "address",
          "name": "vrfCoordinatorV2_5",
          "type": "address"
        },
        {
          "internalType": "uint256",
          "name": "entranceFee",
          "type": "uint256"
        },
        {
          "internalType": "bytes32",
          "name": "gasLane",
          "type": "bytes32"
        },
        {
          "internalType": "uint256",
          "name": "subscriptionId",
          "type": "uint256"
        },
        {
          "internalType": "uint32",
          "name": "callBackGasLimit",
          "type": "uint32"
        },
        {
          "internalType": "uint256",
          "name": "interval",
          "type": "uint256"
        }
      ],
      "stateMutability": "nonpayable",
      "type": "constructor"
    },
    {
      "inputs": [
        {
          "internalType": "address",
          "name": "have",
          "type": "address"
        },
        {
          "internalType": "address",
          "name": "want",
          "type": "address"
        }
      ],
      "name": "OnlyCoordinatorCanFulfill",
      "type": "error"
    },
    {
      "inputs": [
        {
          "internalType": "address",
          "name": "have",
          "type": "address"
        },
        {
          "internalType": "address",
          "name": "owner",
          "type": "address"
        },
        {
          "internalType": "address",
          "name": "coordinator",
          "type": "address"
        }
      ],
      "name": "OnlyOwnerOrCoordinator",
      "type": "error"
    },
    {
      "inputs": [],
      "name": "Raffle__NotOpen",
      "type": "error"
    },
    {
      "inputs": [],
      "name": "Raffle__SendMoreToEnterRaffle",
      "type": "error"
    },
    {
      "inputs": [],
      "name": "Raffle__TransferToLastWinnerFailed",
      "type": "error"
    },
    {
      "inputs": [
        {
          "internalType": "uint256",
          "name": "currentBalance",
          "type": "uint256"
        },
        {
          "internalType": "uint256",
          "name": "numPlayers",
          "type": "uint256"
        },
        {
          "internalType": "uint256",
          "name": "raffleState",
          "type": "uint256"
        }
      ],
      "name": "Raffle__UpKeepNotNeeded",
      "type": "error"
    },
    {
      "inputs": [],
      "name": "ZeroAddress",
      "type": "error"
    },
    {
      "anonymous": false,
      "inputs": [
        {
          "indexed": false,
          "internalType": "address",
          "name": "vrfCoordinator",
          "type": "address"
        }
      ],
      "name": "CoordinatorSet",
      "type": "event"
    },
    {
      "anonymous": false,
      "inputs": [
        {
          "indexed": true,
          "internalType": "address",
          "name": "from",
          "type": "address"
        },
        {
          "indexed": true,
          "internalType": "address",
          "name": "to",
          "type": "address"
        }
      ],
      "name": "OwnershipTransferRequested",
      "type": "event"
    },
    {
      "anonymous": false,
      "inputs": [
        {
          "indexed": true,
          "internalType": "address",
          "name": "from",
          "type": "address"
        },
        {
          "indexed": true,
          "internalType": "address",
          "name": "to",
          "type": "address"
        }
      ],
      "name": "OwnershipTransferred",
      "type": "event"
    },
    {
      "anonymous": false,
      "inputs": [
        {
          "indexed": true,
          "internalType": "address",
          "name": "player",
          "type": "address"
        }
      ],
      "name": "RaffleEnter",
      "type": "event"
    },
    {
      "anonymous": false,
      "inputs": [
        {
          "indexed": true,
          "internalType": "uint256",
          "name": "requestId",
          "type": "uint256"
        }
      ],
      "name": "RequestedRaffleWinner",
      "type": "event"
    },
    {
      "anonymous": false,
      "inputs": [
        {
          "indexed": true,
          "internalType": "address",
          "name": "player",
          "type": "address"
        }
      ],
      "name": "WinnerPicked",
      "type": "event"
    },
    {
      "inputs": [],
      "name": "acceptOwnership",
      "outputs": [],
      "stateMutability": "nonpayable",
      "type": "function"
    },
    {
      "inputs": [
        {
          "internalType": "bytes",
          "name": "",
          "type": "bytes"
        }
      ],
      "name": "checkUpkeep",
      "outputs": [
        {
          "internalType": "bool",
          "name": "upkeepNeeded",
          "type": "bool"
        },
        {
          "internalType": "bytes",
          "name": "",
          "type": "bytes"
        }
      ],
      "stateMutability": "view",
      "type": "function"
    },
    {
      "inputs": [],
      "name": "enterRaffle",
      "outputs": [],
      "stateMutability": "payable",
      "type": "function"
    },
    {
      "inputs": [],
      "name": "getEntranceFee",
      "outputs": [
        {
          "internalType": "uint256",
          "name": "",
          "type": "uint256"
        }
      ],
      "stateMutability": "view",
      "type": "function"
    },
    {
      "inputs": [],
      "name": "getInterval",
      "outputs": [
        {
          "internalType": "uint256",
          "name": "",
          "type": "uint256"
        }
      ],
      "stateMutability": "view",
      "type": "function"
    },
    {
      "inputs": [],
      "name": "getLastTimeStamp",
      "outputs": [
        {
          "internalType": "uint256",
          "name": "",
          "type": "uint256"
        }
      ],
      "stateMutability": "view",
      "type": "function"
    },
    {
      "inputs": [],
      "name": "getLastWinner",
      "outputs": [
        {
          "internalType": "address",
          "name": "",
          "type": "address"
        }
      ],
      "stateMutability": "view",
      "type": "function"
    },
    {
      "inputs": [],
      "name": "getNumWords",
      "outputs": [
        {
          "internalType": "uint256",
          "name": "",
          "type": "uint256"
        }
      ],
      "stateMutability": "pure",
      "type": "function"
    },
    {
      "inputs": [],
      "name": "getNumberOfPlayers",
      "outputs": [
        {
          "internalType": "uint256",
          "name": "",
          "type": "uint256"
        }
      ],
      "stateMutability": "view",
      "type": "function"
    },
    {
      "inputs": [
        {
          "internalType": "uint256",
          "name": "index",
          "type": "uint256"
        }
      ],
      "name": "getPlayer",
      "outputs": [
        {
          "internalType": "address",
          "name": "",
          "type": "address"
        }
      ],
      "stateMutability": "view",
      "type": "function"
    },
    {
      "inputs": [],
      "name": "getRaffleState",
      "outputs": [
        {
          "internalType": "enum Raffle.RaffleState",
          "name": "",
          "type": "uint8"
        }
      ],
      "stateMutability": "view",
      "type": "function"
    },
    {
      "inputs": [],
      "name": "getRequestConfirmations",
      "outputs": [
        {
          "internalType": "uint256",
          "name": "",
          "type": "uint256"
        }
      ],
      "stateMutability": "pure",
      "type": "function"
    },
    {
      "inputs": [],
      "name": "i_subscriptionId",
      "outputs": [
        {
          "internalType": "uint256",
          "name": "",
          "type": "uint256"
        }
      ],
      "stateMutability": "view",
      "type": "function"
    },
    {
      "inputs": [],
      "name": "owner",
      "outputs": [
        {
          "internalType": "address",
          "name": "",
          "type": "address"
        }
      ],
      "stateMutability": "view",
      "type": "function"
    },
    {
      "inputs": [
        {
          "internalType": "bytes",
          "name": "",
          "type": "bytes"
        }
      ],
      "name": "performUpkeep",
      "outputs": [],
      "stateMutability": "nonpayable",
      "type": "function"
    },
    {
      "inputs": [
        {
          "internalType": "uint256",
          "name": "requestId",
          "type": "uint256"
        },
        {
          "internalType": "uint256[]",
          "name": "randomWords",
          "type": "uint256[]"
        }
      ],
      "name": "rawFulfillRandomWords",
      "outputs": [],
      "stateMutability": "nonpayable",
      "type": "function"
    },
    {
      "inputs": [
        {
          "internalType": "uint256",
          "name": "",
          "type": "uint256"
        }
      ],
      "name": "s_randomWords",
      "outputs": [
        {
          "internalType": "uint256",
          "name": "",
          "type": "uint256"
        }
      ],
      "stateMutability": "view",
      "type": "function"
    },
    {
      "inputs": [],
      "name": "s_vrfCoordinator",
      "outputs": [
        {
          "internalType": "contract IVRFCoordinatorV2Plus",
          "name": "",
          "type": "address"
        }
      ],
      "stateMutability": "view",
      "type": "function"
    },
    {
      "inputs": [
        {
          "internalType": "address",
          "name": "_vrfCoordinator",
          "type": "address"
        }
      ],
      "name": "setCoordinator",
      "outputs": [],
      "stateMutability": "nonpayable",
      "type": "function"
    },
    {
      "inputs": [
        {
          "internalType": "address",
          "name": "to",
          "type": "address"
        }
      ],
      "name": "transferOwnership",
      "outputs": [],
      "stateMutability": "nonpayable",
      "type": "function"
    }
  ],
  "bytecode": "0x6101206040523480156200001257600080fd5b50604051620025ce380380620025ce8339818101604052810190620000389190620004a7565b85338060008073ffffffffffffffffffffffffffffffffffffffff168273ffffffffffffffffffffffffffffffffffffffff1603620000ae576040517f08c379a0000000000000000000000000000000000000000000000000000000008152600401620000a590620005a4565b60405180910390fd5b816000806101000a81548173ffffffffffffffffffffffffffffffffffffffff021916908373ffffffffffffffffffffffffffffffffffffffff160217905550600073ffffffffffffffffffffffffffffffffffffffff168173ffffffffffffffffffffffffffffffffffffffff1614620001355762000134816200025760201b60201c565b5b505050600073ffffffffffffffffffffffffffffffffffffffff168173ffffffffffffffffffffffffffffffffffffffff16036200019f576040517fd92e233d00000000000000000000000000000000000000000000000000000000815260040160405180910390fd5b80600260006101000a81548173ffffffffffffffffffffffffffffffffffffffff021916908373ffffffffffffffffffffffffffffffffffffffff1602179055505082608081815250508360a081815250508060e081815250508461010081815250508163ffffffff1660c08163ffffffff16815250506000600760006101000a81548160ff021916908360018111156200023f576200023e620005c6565b5b02179055504260048190555050505050505062000667565b3373ffffffffffffffffffffffffffffffffffffffff168173ffffffffffffffffffffffffffffffffffffffff1603620002c8576040517f08c379a0000000000000000000000000000000000000000000000000000000008152600401620002bf9062000645565b60405180910390fd5b80600160006101000a81548173ffffffffffffffffffffffffffffffffffffffff021916908373ffffffffffffffffffffffffffffffffffffffff1602179055508073ffffffffffffffffffffffffffffffffffffffff1660008054906101000a900473ffffffffffffffffffffffffffffffffffffffff1673ffffffffffffffffffffffffffffffffffffffff167fed8889f560326eb138920d842192f0eb3dd22b4f139c87a2c57538e05bae127860405160405180910390a350565b600080fd5b600073ffffffffffffffffffffffffffffffffffffffff82169050919050565b6000620003b8826200038b565b9050919050565b620003ca81620003ab565b8114620003d657600080fd5b50565b600081519050620003ea81620003bf565b92915050565b6000819050919050565b6200040581620003f0565b81146200041157600080fd5b50565b6000815190506200042581620003fa565b92915050565b6000819050919050565b62000440816200042b565b81146200044c57600080fd5b50565b600081519050620004608162000435565b92915050565b600063ffffffff82169050919050565b620004818162000466565b81146200048d57600080fd5b50565b600081519050620004a18162000476565b92915050565b60008060008060008060c08789031215620004c757620004c662000386565b5b6000620004d789828a01620003d9565b9650506020620004ea89828a0162000414565b9550506040620004fd89828a016200044f565b94505060606200051089828a0162000414565b93505060806200052389828a0162000490565b92505060a06200053689828a0162000414565b9150509295509295509295565b600082825260208201905092915050565b7f43616e6e6f7420736574206f776e657220746f207a65726f0000000000000000600082015250565b60006200058c60188362000543565b9150620005998262000554565b602082019050919050565b60006020820190508181036000830152620005bf816200057d565b9050919050565b7f4e487b7100000000000000000000000000000000000000000000000000000000600052602160045260246000fd5b7f43616e6e6f74207472616e7366657220746f2073656c66000000000000000000600082015250565b60006200062d60178362000543565b91506200063a82620005f5565b602082019050919050565b6000602082019050818103600083015262000660816200061e565b9050919050565b60805160a05160c05160e05161010051611f0d620006c16000396000818161047e01526105810152600081816109d60152610e1e0152600061086c0152600061081501526000818161083b01526109550152611f0d6000f3fe60806040526004361061011f5760003560e01c80638da5cb5b116100a0578063e55ae4e811610064578063e55ae4e814610381578063f2fde38b146103be578063f6eaffc8146103e7578063f88649a114610424578063fd6673f51461044f5761011f565b80638da5cb5b146102ac5780638ea98117146102d757806391ad27b4146103005780639eccacf61461032b578063c1c244e8146103565761011f565b8063470cdf97116100e7578063470cdf97146101d657806353a2c19a146102015780635f1b0fd81461022c5780636e04ff0d1461025757806379ba5097146102955761011f565b806309bc33a714610124578063115cbaf51461014f5780631fe543e31461017a5780632cfcc539146101a35780634585e33b146101ad575b600080fd5b34801561013057600080fd5b5061013961047a565b6040516101469190611470565b60405180910390f35b34801561015b57600080fd5b506101646104a2565b6040516101719190611502565b60405180910390f35b34801561018657600080fd5b506101a1600480360381019061019c91906115c2565b6104b9565b005b6101ab61057f565b005b3480156101b957600080fd5b506101d460048036038101906101cf9190611763565b6106ee565b005b3480156101e257600080fd5b506101eb610953565b6040516101f89190611470565b60405180910390f35b34801561020d57600080fd5b50610216610977565b6040516102239190611470565b60405180910390f35b34801561023857600080fd5b50610241610986565b60405161024e9190611470565b60405180910390f35b34801561026357600080fd5b5061027e60048036038101906102799190611763565b610993565b60405161028c929190611846565b60405180910390f35b3480156102a157600080fd5b506102aa610a7b565b005b3480156102b857600080fd5b506102c1610c10565b6040516102ce91906118b7565b60405180910390f35b3480156102e357600080fd5b506102fe60048036038101906102f991906118fe565b610c39565b005b34801561030c57600080fd5b50610315610e1a565b6040516103229190611470565b60405180910390f35b34801561033757600080fd5b50610340610e42565b60405161034d919061198a565b60405180910390f35b34801561036257600080fd5b5061036b610e68565b6040516103789190611470565b60405180910390f35b34801561038d57600080fd5b506103a860048036038101906103a391906119a5565b610e72565b6040516103b591906118b7565b60405180910390f35b3480156103ca57600080fd5b506103e560048036038101906103e091906118fe565b610eba565b005b3480156103f357600080fd5b5061040e600480360381019061040991906119a5565b610ece565b60405161041b9190611470565b60405180910390f35b34801561043057600080fd5b50610439610ef2565b60405161044691906118b7565b60405180910390f35b34801561045b57600080fd5b50610464610f1c565b6040516104719190611470565b60405180910390f35b60007f0000000000000000000000000000000000000000000000000000000000000000905090565b6000600760009054906101000a900460ff16905090565b600260009054906101000a900473ffffffffffffffffffffffffffffffffffffffff1673ffffffffffffffffffffffffffffffffffffffff163373ffffffffffffffffffffffffffffffffffffffff161461056f5733600260009054906101000a900473ffffffffffffffffffffffffffffffffffffffff166040517f1cf993f40000000000000000000000000000000000000000000000000000000081526004016105669291906119d2565b60405180910390fd5b61057a838383610f29565b505050565b7f00000000000000000000000000000000000000000000000000000000000000003410156105d9576040517f3038c00a00000000000000000000000000000000000000000000000000000000815260040160405180910390fd5b600060018111156105ed576105ec61148b565b5b600760009054906101000a900460ff16600181111561060f5761060e61148b565b5b14610646576040517f1425571c00000000000000000000000000000000000000000000000000000000815260040160405180910390fd5b6006339080600181540180825580915050600190039060005260206000200160009091909190916101000a81548173ffffffffffffffffffffffffffffffffffffffff021916908373ffffffffffffffffffffffffffffffffffffffff1602179055503373ffffffffffffffffffffffffffffffffffffffff167f0805e1d667bddb8a95f0f09880cf94f403fb596ce79928d9f29b74203ba284d460405160405180910390a2565b600061072e6040518060400160405280600381526020017f3078300000000000000000000000000000000000000000000000000000000000815250610993565b5090508061079d5747600680549050600760009054906101000a900460ff16600181111561075f5761075e61148b565b5b6040517f3a8d6086000000000000000000000000000000000000000000000000000000008152600401610794939291906119fb565b60405180910390fd5b6001600760006101000a81548160ff021916908360018111156107c3576107c261148b565b5b02179055506000600260009054906101000a900473ffffffffffffffffffffffffffffffffffffffff1673ffffffffffffffffffffffffffffffffffffffff16639b1c385e6040518060c001604052807f000000000000000000000000000000000000000000000000000000000000000081526020017f00000000000000000000000000000000000000000000000000000000000000008152602001600361ffff1681526020017f000000000000000000000000000000000000000000000000000000000000000063ffffffff168152602001600163ffffffff1681526020016108bd60405180602001604052806000151581525061115c565b8152506040518263ffffffff1660e01b81526004016108dc9190611b69565b6020604051808303816000875af11580156108fb573d6000803e3d6000fd5b505050506040513d601f19601f8201168201806040525081019061091f9190611ba0565b9050807fcd6e45c8998311cab7e9d4385596cac867e20a0587194b954fa3a731c93ce78b60405160405180910390a2505050565b7f000000000000000000000000000000000000000000000000000000000000000081565b6000600163ffffffff16905090565b6000600361ffff16905090565b600060606000600760009054906101000a900460ff1660018111156109bb576109ba61148b565b5b600060018111156109cf576109ce61148b565b5b14905060007f000000000000000000000000000000000000000000000000000000000000000060045442610a039190611bfc565b11905060008060068054905011905060008047119050838015610a235750825b8015610a2c5750815b8015610a355750805b9550856040518060400160405280600381526020017f30783000000000000000000000000000000000000000000000000000000000008152509550955050505050915091565b600160009054906101000a900473ffffffffffffffffffffffffffffffffffffffff1673ffffffffffffffffffffffffffffffffffffffff163373ffffffffffffffffffffffffffffffffffffffff1614610b0b576040517f08c379a0000000000000000000000000000000000000000000000000000000008152600401610b0290611c8d565b60405180910390fd5b60008060009054906101000a900473ffffffffffffffffffffffffffffffffffffffff169050336000806101000a81548173ffffffffffffffffffffffffffffffffffffffff021916908373ffffffffffffffffffffffffffffffffffffffff1602179055506000600160006101000a81548173ffffffffffffffffffffffffffffffffffffffff021916908373ffffffffffffffffffffffffffffffffffffffff1602179055503373ffffffffffffffffffffffffffffffffffffffff168173ffffffffffffffffffffffffffffffffffffffff167f8be0079c531659141344cd1fd0a4f28419497f9722a3daafe3b4186f6b6457e060405160405180910390a350565b60008060009054906101000a900473ffffffffffffffffffffffffffffffffffffffff16905090565b610c41610c10565b73ffffffffffffffffffffffffffffffffffffffff163373ffffffffffffffffffffffffffffffffffffffff1614158015610cca5750600260009054906101000a900473ffffffffffffffffffffffffffffffffffffffff1673ffffffffffffffffffffffffffffffffffffffff163373ffffffffffffffffffffffffffffffffffffffff1614155b15610d395733610cd8610c10565b600260009054906101000a900473ffffffffffffffffffffffffffffffffffffffff166040517f061db9c1000000000000000000000000000000000000000000000000000000008152600401610d3093929190611cad565b60405180910390fd5b600073ffffffffffffffffffffffffffffffffffffffff168173ffffffffffffffffffffffffffffffffffffffff1603610d9f576040517fd92e233d00000000000000000000000000000000000000000000000000000000815260040160405180910390fd5b80600260006101000a81548173ffffffffffffffffffffffffffffffffffffffff021916908373ffffffffffffffffffffffffffffffffffffffff1602179055507fd1a6a14209a385a964d036e404cb5cfb71f4000cdb03c9366292430787261be681604051610e0f91906118b7565b60405180910390a150565b60007f0000000000000000000000000000000000000000000000000000000000000000905090565b600260009054906101000a900473ffffffffffffffffffffffffffffffffffffffff1681565b6000600454905090565b600060068281548110610e8857610e87611ce4565b5b9060005260206000200160009054906101000a900473ffffffffffffffffffffffffffffffffffffffff169050919050565b610ec26111f4565b610ecb81611284565b50565b60038181548110610ede57600080fd5b906000526020600020016000915090505481565b6000600560009054906101000a900473ffffffffffffffffffffffffffffffffffffffff16905090565b6000600680549050905090565b600060068054905083836000818110610f4557610f44611ce4565b5b90506020020135610f569190611d42565b9050600060068281548110610f6e57610f6d611ce4565b5b9060005260206000200160009054906101000a900473ffffffffffffffffffffffffffffffffffffffff16905080600560006101000a81548173ffffffffffffffffffffffffffffffffffffffff021916908373ffffffffffffffffffffffffffffffffffffffff160217905550600067ffffffffffffffff811115610ff757610ff6611638565b5b6040519080825280602002602001820160405280156110255781602001602082028036833780820191505090505b506006908051906020019061103b9291906113b0565b506000600760006101000a81548160ff021916908360018111156110625761106161148b565b5b0217905550426004819055508073ffffffffffffffffffffffffffffffffffffffff167f5b690ec4a06fe979403046eaeea5b3ce38524683c3001f662c8b5a829632f7df60405160405180910390a260008173ffffffffffffffffffffffffffffffffffffffff16476040516110d790611da4565b60006040518083038185875af1925050503d8060008114611114576040519150601f19603f3d011682016040523d82523d6000602084013e611119565b606091505b5050905080611154576040517fa3cc2cc200000000000000000000000000000000000000000000000000000000815260040160405180910390fd5b505050505050565b60607f92fd13387c7fe7befbc38d303d6468778fb9731bc4583f17d92989c6fcfdeaaa826040516024016111909190611de4565b604051602081830303815290604052907bffffffffffffffffffffffffffffffffffffffffffffffffffffffff19166020820180517bffffffffffffffffffffffffffffffffffffffffffffffffffffffff83818316178352505050509050919050565b60008054906101000a900473ffffffffffffffffffffffffffffffffffffffff1673ffffffffffffffffffffffffffffffffffffffff163373ffffffffffffffffffffffffffffffffffffffff1614611282576040517f08c379a000000000000000000000000000000000000000000000000000000000815260040161127990611e4b565b60405180910390fd5b565b3373ffffffffffffffffffffffffffffffffffffffff168173ffffffffffffffffffffffffffffffffffffffff16036112f2576040517f08c379a00000000000000000000000000000000000000000000000000000000081526004016112e990611eb7565b60405180910390fd5b80600160006101000a81548173ffffffffffffffffffffffffffffffffffffffff021916908373ffffffffffffffffffffffffffffffffffffffff1602179055508073ffffffffffffffffffffffffffffffffffffffff1660008054906101000a900473ffffffffffffffffffffffffffffffffffffffff1673ffffffffffffffffffffffffffffffffffffffff167fed8889f560326eb138920d842192f0eb3dd22b4f139c87a2c57538e05bae127860405160405180910390a350565b828054828255906000526020600020908101928215611429579160200282015b828111156114285782518260006101000a81548173ffffffffffffffffffffffffffffffffffffffff021916908373ffffffffffffffffffffffffffffffffffffffff160217905550916020019190600101906113d0565b5b509050611436919061143a565b5090565b5b8082111561145357600081600090555060010161143b565b5090565b6000819050919050565b61146a81611457565b82525050565b60006020820190506114856000830184611461565b92915050565b7f4e487b7100000000000000000000000000000000000000000000000000000000600052602160045260246000fd5b600281106114cb576114ca61148b565b5b50565b60008190506114dc826114ba565b919050565b60006114ec826114ce565b9050919050565b6114fc816114e1565b82525050565b600060208201905061151760008301846114f3565b92915050565b6000604051905090565b600080fd5b600080fd5b61153a81611457565b811461154557600080fd5b50565b60008135905061155781611531565b92915050565b600080fd5b600080fd5b600080fd5b60008083601f8401126115825761158161155d565b5b8235905067ffffffffffffffff81111561159f5761159e611562565b5b6020830191508360208202830111156115bb576115ba611567565b5b9250929050565b6000806000604084860312156115db576115da611527565b5b60006115e986828701611548565b935050602084013567ffffffffffffffff81111561160a5761160961152c565b5b6116168682870161156c565b92509250509250925092565b600080fd5b6000601f19601f8301169050919050565b7f4e487b7100000000000000000000000000000000000000000000000000000000600052604160045260246000fd5b61167082611627565b810181811067ffffffffffffffff8211171561168f5761168e611638565b5b80604052505050565b60006116a261151d565b90506116ae8282611667565b919050565b600067ffffffffffffffff8211156116ce576116cd611638565b5b6116d782611627565b9050602081019050919050565b82818337600083830152505050565b6000611706611701846116b3565b611698565b90508281526020810184848401111561172257611721611622565b5b61172d8482856116e4565b509392505050565b600082601f83011261174a5761174961155d565b5b813561175a8482602086016116f3565b91505092915050565b60006020828403121561177957611778611527565b5b600082013567ffffffffffffffff8111156117975761179661152c565b5b6117a384828501611735565b91505092915050565b60008115159050919050565b6117c1816117ac565b82525050565b600081519050919050565b600082825260208201905092915050565b60005b838110156118015780820151818401526020810190506117e6565b60008484015250505050565b6000611818826117c7565b61182281856117d2565b93506118328185602086016117e3565b61183b81611627565b840191505092915050565b600060408201905061185b60008301856117b8565b818103602083015261186d818461180d565b90509392505050565b600073ffffffffffffffffffffffffffffffffffffffff82169050919050565b60006118a182611876565b9050919050565b6118b181611896565b82525050565b60006020820190506118cc60008301846118a8565b92915050565b6118db81611896565b81146118e657600080fd5b50565b6000813590506118f8816118d2565b92915050565b60006020828403121561191457611913611527565b5b6000611922848285016118e9565b91505092915050565b6000819050919050565b600061195061194b61194684611876565b61192b565b611876565b9050919050565b600061196282611935565b9050919050565b600061197482611957565b9050919050565b61198481611969565b82525050565b600060208201905061199f600083018461197b565b92915050565b6000602082840312156119bb576119ba611527565b5b60006119c984828501611548565b91505092915050565b60006040820190506119e760008301856118a8565b6119f460208301846118a8565b9392505050565b6000606082019050611a106000830186611461565b611a1d6020830185611461565b611a2a6040830184611461565b949350505050565b6000819050919050565b611a4581611a32565b82525050565b611a5481611457565b82525050565b600061ffff82169050919050565b611a7181611a5a565b82525050565b600063ffffffff82169050919050565b611a9081611a77565b82525050565b600082825260208201905092915050565b6000611ab2826117c7565b611abc8185611a96565b9350611acc8185602086016117e3565b611ad581611627565b840191505092915050565b600060c083016000830151611af86000860182611a3c565b506020830151611b0b6020860182611a4b565b506040830151611b1e6040860182611a68565b506060830151611b316060860182611a87565b506080830151611b446080860182611a87565b5060a083015184820360a0860152611b5c8282611aa7565b9150508091505092915050565b60006020820190508181036000830152611b838184611ae0565b905092915050565b600081519050611b9a81611531565b92915050565b600060208284031215611bb657611bb5611527565b5b6000611bc484828501611b8b565b91505092915050565b7f4e487b7100000000000000000000000000000000000000000000000000000000600052601160045260246000fd5b6000611c0782611457565b9150611c1283611457565b9250828203905081811115611c2a57611c29611bcd565b5b92915050565b600082825260208201905092915050565b7f4d7573742062652070726f706f736564206f776e657200000000000000000000600082015250565b6000611c77601683611c30565b9150611c8282611c41565b602082019050919050565b60006020820190508181036000830152611ca681611c6a565b9050919050565b6000606082019050611cc260008301866118a8565b611ccf60208301856118a8565b611cdc60408301846118a8565b949350505050565b7f4e487b7100000000000000000000000000000000000000000000000000000000600052603260045260246000fd5b7f4e487b7100000000000000000000000000000000000000000000000000000000600052601260045260246000fd5b6000611d4d82611457565b9150611d5883611457565b925082611d6857611d67611d13565b5b828206905092915050565b600081905092915050565b50565b6000611d8e600083611d73565b9150611d9982611d7e565b600082019050919050565b6000611daf82611d81565b9150819050919050565b611dc2816117ac565b82525050565b602082016000820151611dde6000850182611db9565b50505050565b6000602082019050611df96000830184611dc8565b92915050565b7f4f6e6c792063616c6c61626c65206279206f776e657200000000000000000000600082015250565b6000611e35601683611c30565b9150611e4082611dff565b602082019050919050565b60006020820190508181036000830152611e6481611e28565b9050919050565b7f43616e6e6f74207472616e7366657220746f2073656c66000000000000000000600082015250565b6000611ea1601783611c30565b9150611eac82611e6b565b602082019050919050565b60006020820190508181036000830152611ed081611e94565b905091905056fea26469706673582212208d2ae1c08d221f07da9d5fc9176571148033fb2c3027c333657f0b2b4e03cd8b64736f6c63430008130033",
  "linkReferences": {},
  "deployedLinkReferences": {}
}